:100000000C94EB180C940A190C940A190C940A1904
:100010000C940A190C940A190C940A190C940A19D4
:100020000C940A190C940A190C940A190C940A19C4
:100030000C940A190C940A190C940A190C941819A6
:100040000C940A190C940A190C9457260C948726C0
:100050000C940A190C940A190C940A190C940A1994
:100060000C940A190C940A190C940A190C940A1984
:100070000C940A190C940A190C940B270C943D2724
:100080000C940A190C940A190C940A1953696E6796
:100090006C6520546F6E65005377656570207365DD
:1000A0007474696E6773005265666C656374696F1A
:1000B0006E005472616E736D697373696F6E004484
:1000C00044532054574F2032004444532054574F38
:1000D000203200466F7277617264005265766572F5
:1000E000736500526563656976656400426F6F747D
:1000F0006C6F616465722E2E000F8A0A0B2D4E0301
:1001000001040403040506040406040401020303B5
:10011000030408060505060505060603060504088A
:100120000707040805060705050A07060603040372
:100130000406020504040404040404010204010783
:100140000404040403040304040705050420202018
:100150000000008000C0300C03000000007E8181A0
:100160007E0000000082FF80000000E291918E007E
:100170000000004281898976000000000020302CB8
:1001800022FF20000000000000CF858579000000DC
:1001900000788E8970000000000181710D0301005C
:1001A000000000000076898976000000000E917141
:1001B0001E00000000480000882000203048000099
:1001C0000048484800000044281000000001A11920
:1001D00006000000003C4299959D91520C000000E1
:1001E0000000000000C0301C133CC00000000000F4
:1001F00000FF9191916E000000000078868181439C
:100200000000000000FF81828244380000000000EE
:1002100000FF898989890000000000FF09090901A0
:10022000000000000078849291513200000000002C
:1002300000FF10101010FF00000000000081FF817F
:10024000000000608181FF0101000000000000FF4C
:10025000182442810000000000FF80808000000020
:1002600000C0780738F00F38C00000000000000020
:1002700000FF020C102040FF000000000000007C86
:1002800082818181413E00000000000000FF1111C9
:100290000E000000003C428181A1C1C27C00000030
:1002A0000000002040FF2121528C0000000000408F
:1002B0008689898971000000000000010101FF01A9
:1002C0000101000000000000007F8080807F0000AE
:1002D00000000007788078070000000000033CC0A1
:1002E0003C037C80700E0100000000000000000054
:1002F0000081422418244281000000000000000117
:1003000006D8300E01000000000000C1A1998583CD
:1003100081000000000000FF0101604040021C60FD
:1003200080000000200101FF40406004030304003E
:10033000000000000000000000404040404040013C
:1003400002000070888878800000000000FF888824
:1003500070000000007088885800000000708888D5
:10036000FF0000000070A8A8500000000008FE096F
:100370000100000000708888F880808060FF10080D
:10038000F000000000FA0000FA80E0FF2070880012
:10039000000000FF00F81008F81008F80000000046
:1003A000000000F81008F00000000070888870005D
:1003B000000000F8888870E0000000708888F8006D
:1003C0000000E0F8081800000090A8A8480000000D
:1003D0000008FE08000000788080F8000000003867
:1003E000C0C038000000007880607880601800008D
:1003F0000000000000885020508800000000000825
:1004000030C0300800C020000088C8B88800000054
:100410000015770A0C2E4D02030604060606060692
:100420000606060202060606060B0707070706056C
:10043000070702060706090708070808070607084E
:100440000C07070603030306070306060606060451
:100450000606020206020A06060606040603060649
:100460000906060580801010807C03100000FEFF46
:100470000101FFFE0010101010000C06FFFF00002D
:10048000101082C361311F0E1010101010108283E3
:100490000909FFF6001010101000605846FFFF40D9
:1004A0000000001010009C9F0B09F9F100101010C3
:1004B0001000FCFE0909FBF200101010100001C131
:1004C000F13D0F03001010000000EEFF1111FFEED0
:1004D0000010101010009EBF2121FF7E0010101090
:1004E00000008C8C10108C8C50301038286C44C656
:1004F000000000000000282828282828000000000C
:100500000000C6446C283810000000000000020300
:10051000B1B90F06000010100000F00CF2FB8D8D39
:10052000F9FD0E867C1020409090809090904020A5
:10053000C0FC7F437FFCC010100000001010FFFFC4
:10054000111111FFEE101010101010007CFE83012D
:1005500001838200001010101000FFFF010183FED4
:100560007C10101010100000FFFF1111111110105D
:1005700010101010FFFF11111110100000007CFE70
:10058000830111F3F200001010101000FFFF101093
:1005900010FFFF10100000001010FFFF1010C0C06F
:1005A0000000FFFF001010101000FFFF181C7EF36A
:1005B0008110100000001010FFFF0000000010105C
:1005C00010101010FFFF0FFCC0FC0FFFFF101000F9
:1005D000001000001010FFFF0E38E0FFFF101000A9
:1005E000000010107CFE83010183FE7C00001010CF
:1005F00010100000FFFF2121213F1E1010000000FD
:1006000000007CFE83014183FE7C0000101010106E
:100610001020FFFF111131FFCE001010000000006C
:1006200010108E9F193931F3E200101010101000D5
:100630000101FFFF0101000010100000FFFF00009A
:1006400000FFFF001010101010000F7EF080F07EF1
:100650000F0100001010100000003FFCC0FC3F071D
:100660003FFCC0FC3F0300101010000000101010F1
:10067000000083EF7C387CEF831010000000101026
:10068000070EF8F80E070100001010000000C1E18D
:10069000391D0703101010101010FFFF017070407B
:1006A000037C8000001001FFFF407070101C0707E2
:1006B0001C100000000000000000000000000040CE
:1006C000404040404040010302000000C8E43414B0
:1006D000FCF8001010101010FFFF8804FCF8101038
:1006E00000101000F8FC04048C880010101010009A
:1006F000F8FC0488FFFF001010001010F8FC242400
:10070000BCB8001010101000FEFF05011010000012
:10071000F8FC0488FCFC205050407030FFFF0804B7
:10072000FCF8101000001010FDFD1010FDFD7030E1
:10073000FFFF3078EC84101000001010FFFF101045
:10074000FCFC0804FCFC0804FCF81010000010106D
:1007500000001010FCFC0804FCF810100000101041
:10076000F8FC0404FCF8001010101000FCFC8804D5
:10077000FCF8707000101000F8FC0488FCFC0010FD
:1007800010007070FCFC04041010000098BC34646D
:10079000ECC8001010101000FEFF04001010FCFC4C
:1007A0000080FCFC0010100010107CF080F07C0C2D
:1007B0000010101000003CFCC0F81CF8C0FC3C000D
:1007C00010100000001010008CDC7070DC8C101019
:1007D000000010107CF080F07C0C407030100000A5
:1007E00084E4741C0C1010101010368A0A12206059
:1007F0000002050A090E0B020505050A020502059D
:100800000909090909090909090902020909090867
:10081000110B0A0B0B0A090C0B02070B080D0B0C32
:100820000A0C0C0A0A0B0B110B0C0A040504070A2C
:10083000030808070808050808020308020C08084E
:10084000080805070408090D0809080602060A0A2F
:10085000FEFE373700003E3E003E3E000000000036
:1008600000000000003030B0F8FE36B0F8FE36066A
:10087000363F0F06363F0F0606000000000000005E
:10088000000000387C66C6FFC6868C080C1C383019
:10089000FF31391F0F0000000000000000007CFE47
:1008A0008282FE7CC0F07C8E82808000000000206E
:1008B000381E07011F3F20203F1F000000000000DE
:1008C00000000000000000000080BCFEC6E63E1CE8
:1008D0000000000E1F393031331E1C1F3320000072
:1008E0000000000000000000003E3E00000000C0CC
:1008F000F03804021F7FE000000000004080020486
:1009000038F0C00000E07F1F804000000004340E7B
:10091000340400000000000000000000808080809F
:10092000F8F880808080010101011F1F0101010191
:10093000000000000000000000000000B070000097
:100940000000000000030303030300000000000098
:1009500000303000000000C0F83E303E0F010000C3
:1009600000000000F8FC0E06060EFCF8000F1F3811
:100970003030381F0F000000000000000000003081
:10098000180CFEFE000000000000003F3F000000C9
:1009900000000000000000000000181C0E06068E7B
:1009A000FC7800303C3C3633313030000000000031
:1009B0000000000000080C06C6C6FCB800000C1CB5
:1009C000303030301F0F0000000000000000000039
:1009D0000080E0701CFEFE000007070606063F3F91
:1009E0000606000000000000000000F0FE4E6666F3
:1009F00066C680000C1C303030301F0F0000000035
:100A0000000000000000F0FC8EC6C6C68C0800077F
:100A10001F393030301F0F000000000000000000C0
:100A20000006060686E6761E060000003C3F07002C
:100A300000000000000000000000000038FCC6C6F6
:100A4000C6C6FC38000F1F303030301F0F000000CA
:100A50000000000000000078FC868686C6FCF800D6
:100A60000818313131381F07000000000000000075
:100A700000003030303000003030B070000080C0F6
:100A80004060602030301800010103030206060CAC
:100A90000000000000000000003030303030303006
:100AA00030300303030303030303030000000000CB
:100AB0000000000018303020606040C0800C060646
:100AC0000203030101000000000000000000001804
:100AD0001C0E0686CE7C3800003637010000000070
:100AE0000000000000000080E070188CCCE6363674
:100AF00076E6F63C1C38F0E01F7FE0C08FBF383050
:100B0000103C3F313098DCCF430000004040C0C073
:100B1000C0C0C0C0C0C0404000000000C0F83E06D9
:100B20003EF8C00000303E0F03030303030F3E30C6
:100B30000000000000000000000000FEFEC6C6C667
:100B4000C6C6C6FC383F3F3030303030381F0F004B
:100B5000000000000000000000E0F81C0E06060681
:100B6000060C1C18030F1C1830303030181C040001
:100B700000000000000000000000FEFE0606060661
:100B8000060E1CF8F03F3F3030303030381C0F0379
:100B90000000000000000000000000FEFEC6C6C607
:100BA000C6C6C6C6063F3F30303030303030300029
:100BB000000000000000000000FEFEC6C6C6C6C65B
:100BC000C6063F3F000000000000000000000000DB
:100BD00000000000E0F81C0C06068686868C9C90BF
:100BE000030F1C183030313131191F0F0000000085
:100BF0000000000000000000FEFEC0C0C0C0C0C079
:100C0000C0FEFE3F3F000000000000003F3F00002C
:100C1000000000000000000000FEFE3F3F0000005A
:100C200000000000FEFE1C3C3030301F0F000000B2
:100C300000000000FEFEC0E0F0B81C0E0602003FFF
:100C40003F010001030F1E383020000000000000AB
:100C50000000000000FEFE0000000000003F3F30EA
:100C600030303030300000000000000000FEFE1E7A
:100C7000FCE0000000E0FC1EFEFE3F3F00000F3ED7
:100C8000303E0F00003F3F00000000000000000069
:100C900000000000FEFE1C38E0C0800000FEFE3FA9
:100CA0003F00000001030E1C3F3F00000000000059
:100CB0000000000000E0F81C0C060606060E1CF8FA
:100CC000E0030F1C1830303030181C0F03000000F8
:100CD000000000000000000000FEFE86868686867A
:100CE000CEFC783F3F01010101010100000000003E
:100CF00000000000000000E0F81C0E060606060ECC
:100D00001CF8F0030F1C383030343C183C2723000B
:100D10000000000000000000000000FEFEC6C6C685
:100D2000C6C6C6EE7C38003F3F0000000003071E29
:100D30003C302000000000000000000000000038EF
:100D40007CCCC6C686868E1C180C1C3830303131DF
:100D5000391F0E000000000000000000000606061B
:100D600006FEFE06060606000000003F3F000000EB
:100D70000000000000000000000000FEFE00000077
:100D800000000000FEFE0F1F183030303030181FFA
:100D9000070000000000000000000000063EF8C050
:100DA000000000C0F83E060000010F3E303E0F017B
:100DB0000000000000000000000000000006FEF837
:100DC000000000F87E067EF8000000F8FE06000035
:100DD0000F3F303F0F0000000F3F303F0F0000007B
:100DE0000000000000000000000000000000000003
:100DF0000002061EF8E0F81E06020020303C0F0735
:100E000000070F3C30200000000000000000000040
:100E10000002061E38F0C0C0F0381E0602000000B6
:100E200000003F3F00000000000000000000000044
:100E300000000000000006060686E6763E0E06303C
:100E4000383E3733303030303000000000000000D2
:100E5000000000FEFE0606FFFF0000C0C0C0C00686
:100E60003EF8C0000000010F3E0000000000060632
:100E7000FEFE0000FFFFC0C0C0C080F03C063CF09A
:100E800080000000000000000000000000000000E2
:100E90000000000000000000000000000000000052
:100EA000000000C0C0C0C0C0C0C0C0C0C0020604B6
:100EB00000000000000040603030B0B0F0E01E3FA5
:100EC000333331193F3F0000000000000000FEFEF8
:100ED00060303070E0C03F3F183030381F0F0000E6
:100EE000000000000000C0E070303070600F1F385C
:100EF0003030381800000000000000C0E0703030D2
:100F000060FEFE0F1F383030183F3F000000000029
:100F1000000000C0E070303070E0800F1F3B3333C2
:100F2000331B0B000000000000000030FCFE3636D2
:100F3000003F3F00000000000000C0E07030306063
:100F4000F0F08F9F38303098FFFF40C0C0C0C0C065
:100F50004000FEFE60303030F0E03F3F0000000017
:100F60003F3F0000000000000000F6F63F3F000099
:100F700000F6F600FFFFC0C040FEFE80C06070308B
:100F8000103F3F01030F3C30200000000000000034
:100F900000FEFE3F3F0000F0F0603030F0C06030F7
:100FA00030F0E03F3F0000003F3F0000003F3F00C7
:100FB0000000000000000000000000F0F060303091
:100FC00030F0E03F3F000000003F3F000000000025
:100FD000000000C0E070303070E0C00F1F383030CB
:100FE000381F0F0000000000000000F0F0603030FB
:100FF00070E0C0FFFF183030381F0FC0C000000085
:10100000000000C0E070303060F0F00F1F3830306A
:1010100018FFFF000000000000C0C0F0F06030309A
:101020003F3F0000000000000000E0F0B0303070F2
:101030006018393133373E1C0000000000000030DA
:10104000FEFE30003F3F3000000000F0F0000000E6
:1010500000F0F01F3F303030183F3F00000000002C
:1010600000000030F0C0000000C0F0300001071E9A
:10107000381E07010000000000000000000070F0B2
:10108000800000E070E0000080F07000031F383F37
:101090000300033F381F03000000000000000000B1
:1010A00000000000001070E08080E0701020381C0C
:1010B00007071C3820000000000000000030F0C0CE
:1010C000000000C0F0300000038FFC7E0F01000024
:1010D000C0C0C0400000000030303030B0F0F070D0
:1010E000383C3E3733313030000000000000000053
:1010F0000080FCFE06060307FFFC0000000040C065
:10110000C0C0FEFEFFFFC0C00606FEFC800000005F
:10111000FCFF0703C0C0C040000080C0C0C080808A
:101120000000008001000000010103030301000032
:101130000000000000000000FC0404040404040497
:1011400004FC3F20202020202020203F0000000021
:101150000000000000005CEE0A1820600002060D8E
:101160000B130E020606080C020702070B0B0B0BF3
:101170000B0B0B0B0B0B02020B0B0B0B160F0D0FBC
:101180000E0D0C100D02090E0A0F0D110D110E0E91
:101190000E0D0F170F100E0407040A0D040B0B0A97
:1011A0000B0B070B0A02040A02100A0B0B0B060AB0
:1011B000070A0B110B0A0A0602060C0CFEFE3F3F43
:1011C00003037E7E00007E7E000000000000000021
:1011D00000000000C0C0C0C0F8FEC6C0C0F8FEC617
:1011E000C03030F0FF3F3030F0FF3F303030000390
:1011F000030000000303000000000078FC8C86065A
:10120000FF06060C1C1060E0C10103FF030686FC0C
:101210007800010103030F0303010100F8FC06023B
:101220000206FCF80000C0F03C0E060000000000C2
:101230000103020283E1F83C0F03F8FC06020206F8
:10124000FCF80000000002030100000000000103A0
:101250000202030100000038FCCE8686CEFC380076
:1012600000000078FCCE070303078EB8F0F0FC887E
:101270000000010103030303030101000303017ED6
:101280007E0000000000E0F81C0602FFFF000000E6
:101290000000071F38604002061CF8E00000000054
:1012A00000FFFF4060381F07000848F83E3EF8483E
:1012B0000800000000000000000000000000000026
:1012C000000000000000F0F000000000000606062C
:1012D0000606FFFF060606060600000000000000E6
:1012E000000000000000000000331F0000000000AC
:1012F0000000181818181818180000000000000046
:10130000000000000303000000C0F83E0600E0FEFD
:101310001F03000003030000000000E0F81C0E069D
:1013200006060E1CF8E03FFFC08000000080C0FFF2
:101330003F00010103030303030100006070301844
:10134000FEFE000000000000000000FFFF000000A3
:1013500000000000000003030000000000303C0C0F
:1013600006060606060CFCF00080C06030380C064D
:101370000301000303030303030303030303101C1C
:101380000C060606068CFC780060E0800003030370
:101390000386FC780000010303030303010000003F
:1013A0000000C0E0781CFEFE0000383C3F333030C7
:1013B00030FFFF3030000000000000000303000099
:1013C00000F8FE86C6C6C6C686060063E381000036
:1013D000000000C1FF3E00010103030303030100FD
:1013E00000C0F83C0C868686860E1C183FFFC6831C
:1013F0000101010183FF7C000001030303030301DA
:10140000000006060606060686E6361E06000000F2
:10141000C0F83F07000000000000000303000000C8
:101420000000000078FC8E0606068EFC780078FC32
:1014300086030303030386FC78000101030303030F
:1014400003010100F0F81C06060606061CF8E0C1C0
:10145000C7860C0C0C0C86E3FF1F0001030303037B
:1014600003010100006060000003036060000033BE
:101470001F0000008080C0C0406060300207050D82
:101480000D0818103030600000000000000000005F
:101490000000C0C0C0C0C0C0C0C0C0C0C0181818C4
:1014A000181818181818181800000000000000007C
:1014B00000000030606040C080808000000060302C
:1014C000301018180D0D0507020000000000000084
:1014D0000000000030381C0E0606060E8CFC700062
:1014E000000000383C0E030301000000000003036D
:1014F00000000000000080E070381C8CCCE66666BE
:1015000066C686EEEC1C3870E08000FEFF01007CB1
:10151000FF8300000080C0E0FF1F0080C0F07F1F3D
:101520000000030F1C183931336363616161636329
:1015300063313118180C0400000000E0F83E063E4C
:10154000F8E00000000000E0F83F1F181818181815
:101550001F3FF8E00003030000000000000000004F
:1015600000000303FEFE060606060606068CFC784F
:1015700000FFFF03030303030303078FFC78030348
:101580000303030303030303010100C0F0781C0CF1
:101590000606060606060C1C38201F7FE0C08000E9
:1015A000000000000080C0F03000000001010303D3
:1015B0000303030301010000FEFE060606060606FD
:1015C000060E1C38F0C0FFFF000000000000008085
:1015D000C0E07F1F030303030303030303010100B0
:1015E0000000FEFE0606060606060606060606FFBE
:1015F000FF030303030303030303030003030303C2
:10160000030303030303030303FEFE0606060606A5
:101610000606060606FFFF03030303030303030393
:1016200000030300000000000000000000C0F0788C
:101630001C0C0E06060606060E0C1C38201F7FF03A
:10164000C080800000000606868686FEFE00000040
:1016500001010103030303030301010000FEFE0077
:101660000000000000000000FEFEFFFF0303030374
:101670000303030303FFFF03030000000000000057
:1016800000000303FEFEFFFF030300000000000054
:1016900000FEFEE0E08000000080FFFF0001030389
:1016A0000303030100FEFE000080C0E070381C0E42
:1016B000060200FFFF0E0703070F1E78F0E0800010
:1016C000000303000000000000000001030302FE0D
:1016D000FE0000000000000000FFFF00000000000E
:1016E00000000003030303030303030303FEFE1EC2
:1016F000FCE00000000000E0FC1EFEFEFFFF00001A
:101700000F7EF000F07E0F0000FFFF0303000000DB
:1017100000030303000000000303FEFE1C38E0C0CA
:101720000000000000FEFEFFFF00000003071E385F
:10173000E0C0FFFF03030000000000000000010301
:1017400003C0F0781C0C0E06060606060E0C1C786C
:10175000F0801F7FF0C0808000000000008080C00B
:10176000F07F1F00000001010303030303030301D3
:1017700001000000FEFE06060606060606060CFC34
:10178000F0FFFF060606060606060603030003032F
:101790000000000000000000000000C0F0781C0CF9
:1017A0000E06060606060E0C1C78F0C01F7FF0C061
:1017B00080800000006060C0C0C0F07F1F0000009B
:1017C0000101010303030303030103030706FEFEF4
:1017D00006060606060606068EFCF800FFFF030353
:1017E0000303070F3F7BF1C100000303000000006B
:1017F00000000000010303020070FC8C8606060650
:1018000006060C1C383030F0C18183030303030744
:1018100086CEFC78000001010303030303030101EA
:101820000000060606060606FEFE06060606060674
:10183000000000000000FFFF0000000000000000AA
:10184000000000000303000000000000FEFE000096
:1018500000000000000000FEFE3FFFC0800000000E
:10186000000080C0FF7F00000103030303030303A4
:10187000010000021EFCE080000000000080E0FC8F
:101880001E02000000031FFCE080E0FC1F030000BC
:10189000000000000000000303030000000000003F
:1018A000067EF88000000000C0F83E063EF8C0004A
:1018B00000000080F87E0600000FFFF800F0FE1F19
:1018C00003000000011FFEF000F8FF0F0000000001
:1018D00000000303030000000000000000000303F9
:1018E00003000000000002061E3CF0E080E0F83C2F
:1018F0001E0602000000C0E0F83C1F031F3C70E021
:10190000C00000020303010000000000000001030A
:10191000030202061E3870E0C00000C0E0783C1EE2
:10192000060200000000000103FFFF0301000000A9
:1019300000000000000000000003030000000000A1
:1019400000000006060606060686C6E6761E0E0699
:101950000080C070381C0E0301000000000003036B
:10196000030303030303030303030303FEFE06064B
:10197000FFFF00007F7F6060063EF8C000000000AF
:1019800000031FFCE000000000000003030606FE49
:10199000FE0000FFFF60607F7F0080F07C0E0E7C09
:1019A000F0800002030100000000010302000000BB
:1019B0000000000000000000000000000000000027
:1019C0000000000000000000000000000000000017
:1019D000006060606060606060606060606002061F
:1019E0000E08000000000000000080C0C0606060C1
:1019F00060E0C08000E1F19818180C8CCCFFFF006B
:101A00000001030303030101010302FEFE80C06025
:101A10006060E0C08000FFFFC18000000080C1FF67
:101A20003E03030001030303030100000080C0E044
:101A3000606060E0C0807FFFC10000000080C1C125
:101A4000000001030303030301000080C0E06060A5
:101A500060C080FEFE3EFFC18000000080C1FFFF2D
:101A600000000103030303010003030080C0E060E2
:101A70006060E0C080007FFFCC8C0C0C0C8C8DCFA4
:101A80004F00000103030303030100006060FCFE3C
:101A90006666660000FFFF00000000000303000010
:101AA000000080C0E0606060C080E0E03EFFC18078
:101AB00000000080C1FFFF183871636363637138F1
:101AC0003F0FFEFE80C0606060E0C080FFFF01004D
:101AD00000000000FFFF03030000000000000303FC
:101AE000E6E6FFFF03030000E6E60000FFFF60609C
:101AF0007F3FFEFE00000080C0602000FFFF0C0E54
:101B00001F79F0C00000030300000000000303027F
:101B1000FEFEFFFF0303E0E0C0406060E0C080C065
:101B2000606060E0C080FFFF0000000000FFFF0079
:101B300000000000FFFF030300000000000303009B
:101B4000000000000303E0E080C0606060E0C0804F
:101B5000FFFF010000000000FFFF03030000000082
:101B6000000003030080C0E0606060E0C080007F90
:101B7000FFC18000000080C1FF7F0000010303035C
:101B80000303010000E0E080C0606060E0C080000E
:101B9000FFFFC18000000080C1FF3E7F7F00010386
:101BA0000303030100000080C0E0606060C080E0CB
:101BB000E03FFFC18000000080C1FFFF0000010383
:101BC00003030301007F7FE0E0C0606060FFFF006F
:101BD00000000003030000000080C0E0606060605F
:101BE000E0C080C3C78E0C0C1C1C98F9F1000103E7
:101BF000030303030301006060FCFE6060600000FB
:101C0000FFFF00000000000103030303E0E0000009
:101C100000000000E0E0FFFF8000000080C0FFFF48
:101C20000001030303030100030360E080000000E0
:101C3000000080E06000030F7CF080F07C0F030068
:101C40000000000001030100000000E0E0000000CF
:101C50000000C0E0C00000000000E0E000073FF826
:101C600080F83E0700073EF880F83F0700000000BC
:101C700001030100000000000103010000002060DA
:101C8000E08000000080C0E0200000C1E37F1C7EF7
:101C9000E3C100000203030000000000030302E0B0
:101CA000E0000000000080E06000071FF8E0C0FCDA
:101CB0003F0700006060703F0F010000000060609F
:101CC00060606060E0E06000C0E0703C0E0703010F
:101CD00000030303030303030303030000FCFE06E6
:101CE00006183CE7C3000000003F7F6060FEFEFF77
:101CF000FFFFFF0606FEFC00000000C3F73C186073
:101D0000607F3F00000000000000000000000000B5
:101D100000060703030306060C0C0C0E0600000069
:101D2000000000000000000000FC0404040404049F
:101D300004040404FCFF0000000000000000000098
:101D4000FF03020202020202020202020391A00A3F
:101D50001D2060000308100E17120308080A0F0365
:101D60000803080F0F0F0F0F0F0F0F0F0F03030EB6
:101D70000F0E0F1C13111413100F1412030C120E5C
:101D8000151215111513111112131D131311060736
:101D9000060C11050E0E0D0E0E080E0D03050D039B
:101DA000150D0E0E0E080D080D0F150E0F0E090263
:101DB00009100FFEFEFE0FFF0F707370000000FE93
:101DC000FEFE0000FEFEFE0001000000000100001B
:101DD000000000000000000000000000000000C043
:101DE000C0C0C0C0F8FEFEC6C0C0F8FEFEC6C0C17E
:101DF000C1C1F1FFFFCFC1C1F1FFFFCFC1C1C1011F
:101E0000617F7F1F0101617F7F1F010101010100CF
:101E1000000000000000000000000000000000F0D2
:101E2000F8FC1C0E0EFFFF0E1E3C383000010307AD
:101E3000070E0EFFFF1C3C38F8F0C0061E3E3C703B
:101E400070FFFF70783C3F1F070000000000001883
:101E500018000000000000F0FCFC0E06060EFCFC62
:101E6000F0000000C0F0FC3E0E0200000000030F76
:101E70000F1C18181C0F07C3F0FC3FCFF3F03818E5
:101E80001838F0F0C0000000000040707C3F0F03E5
:101E900000000F3F3F706060703F3F0F0000000088
:101EA0000000000000000000000000000000000032
:101EB000000000000000F0FCFC1E0E0E1EFCFCF0FA
:101EC000000000000080E0F0703B1F1F1C7EF7E365
:101ED000810080E0E04000071F3F3C787070707028
:101EE00070393F1F0F3F7970200000000000000094
:101EF0000000000000000000000000FEFEFE0001E7
:101F0000000000000000000000C0F0781C0602F88D
:101F1000FFFF0300000000073FFFF8800000000003
:101F20000000183870C08002061C78F0C000000065
:101F300000000007FFFFF800000080F8FF3F078067
:101F4000C07038180000001018B0F0FEFEF0B01895
:101F50001000010301000001030100000000000067
:101F60000000000000000000000000000000000071
:101F70000000000000E0E0E0000000000000383851
:101F800038383838FFFFFF38383838383800000024
:101F90000000000F0F0F0000000000000000000014
:101FA0000000000000000000000000000000000031
:101FB0000070F0F02038180000000000000000C0A1
:101FC000C0C0C0C0C0C0C0010101010101010100C9
:101FD00000000000000000000000000000707070B1
:101FE00000000000000000C0F87E060000C0FC3FBA
:101FF000030000607E1F03000000000000000000DE
:1020000000000080F0F87C1E0E0E0E0E0E1C7CF8F8
:10201000F080FFFFFF000000000000000000FFFF55
:10202000FF010F1F3E787070707070783E1F0F01B7
:10203000000000000000000000000000000000C0E0
:10204000C0E07038FCFEFE0000000000000001004F
:10205000000000FFFFFF0000000000000000000083
:1020600000007F7F7F0000000000000000000000F3
:10207000000000000000000000000060787C1C1ED2
:102080000E0E0E0E1E3CFCF8E0000000000000806A
:10209000C0E0F0783C1F07030060787C7E777371A6
:1020A0007070707070707000000000000000000020
:1020B0000000000000000060787C3C1E0E0E0E0E3A
:1020C0000E1CFCF8F0000000000000000E0E0E0FC9
:1020D0001F3FF9F0E0061E3E3C787070707070385B
:1020E0003C1F0F0300000000000000000000000083
:1020F00000000000000000000080E0F078FCFEFE20
:102100000000C0E0F0B89E8F87818080FFFFFF80D5
:1021100080030303030303030303037F7F7F03039E
:1021200000000000000000000000000000000000AF
:10213000F0FEFE0E0E0E0E0E0E0E0E0E0E000E0F0A
:102140000F0D0607070707070F1EFCF8F0061E3ED7
:102150003C787070707070383C1F0F0300000000F6
:10216000000000000000000000000000E0F8F83C63
:102170001E0E0E0E0E1E3C7C7860FFFFFF381C0CFE
:102180000E0E0E0E1E3CFCF8E0010F1F3C38707066
:10219000707070783C1F0F07000000000000000006
:1021A000000000000000000E0E0E0E0E0E0E0E8E31
:1021B000CEEE7E1E0E000000000080E0F87E1F03C1
:1021C0000100000000000000787F7F070000000091
:1021D00000000000000000000000000000000000FF
:1021E00000000000F0F8FC1C0E0E0E0E0E1CFCF899
:1021F000F000C0F0F93B1F0E0E0E0E0E1F3BF9F063
:10220000C0070F1F3C787070707070783C1F0F070C
:10221000000000000000000000000000000000E0DE
:10222000F0F83C1E0E0E0E0E0E1C3CF8F080071F40
:102230003F3C787070707030381CFFFFFF061E3E08
:102240003C787070707078381F1F07000000000025
:1022500000000000000000000000008080800303F8
:102260000370707000000080808003030370F0F042
:1022700020381800000000000000008080C0C0C0AE
:10228000E0387C7CEEEEC6C7C78383010101000005
:102290000000000000010103030707070E00000013
:1022A000000000000000000000000000000000002E
:1022B00000000000000000000000C7C7C7C7C7C774
:1022C000C7C7C7C7C7C7C7C7C70101010101010108
:1022D00001010101010101010000000000000000F6
:1022E00000000000000000E0C0C0C08080000000CE
:1022F0000000000000000101018383C7C7C6EEEEA5
:102300007C7C380E07070703030101000000000072
:10231000000000000000000000000000000000605D
:10232000787C3C1E0E0E0E0E0E1E3CFCF8E00000EB
:1023300000000000C0F0F87C1E0F07030100000041
:102340000000007373730000000000000000000034
:102350000000000000000000000000000080C0E05D
:10236000F078383C1C1E8E8E8E8E0E0E0E9C9CBC01
:1023700078F8F0E0800000F0FEFF0F0300E0F8FEC8
:102380003F0F0703030307FEFFFF1F01000083FF4A
:10239000FFFE000F3FFFF8E080071F3F787070706E
:1023A000381C3F7F7F717038381E8F87C3C0400054
:1023B000000008183838787070F0E0E0E0E0E0E005
:1023C000E0E070707038381808000000000000006D
:1023D00080F0FC7E0E7EFCE080000000000000002B
:1023E00000E0FCFFFFE3E0E0E0E3FFFFFCE00000D3
:1023F00000607C7F1F03000000000000000000035D
:102400001F7F7C6000000000000000000000000052
:1024100000000000000000FEFEFE0E0E0E0E0E0E6E
:102420000E0E1E1CFCF8F000FFFFFF1C1C1C1C1CE9
:102430001C1C1C1E3E7FF3E1C07F7F7F707070709C
:102440007070707070783C3F1F0700000000000043
:10245000000000000000000000000000C0F0F8785C
:102460001C1C0E0E0E0E0E0E1E3C7CF8F0C000FF63
:10247000FFFF8100000000000000000000000000DD
:1024800080800000030F1F1E3C38707070707070E9
:1024900078383C1F0F07010000000000000000001A
:1024A0000000000000000000000000FEFEFE0E0E16
:1024B0000E0E0E0E0E0E0E1E1C3CF8F0E000FFFF7E
:1024C000FF00000000000000000000000080FFFF8F
:1024D000FF7F7F7F70707070707070707038383CE4
:1024E0001F0F0300000000000000000000000000BB
:1024F00000000000000000FEFEFE0E0E0E0E0E0E8E
:102500000E0E0E0E0E0E00FFFFFF1C1C1C1C1C1CD2
:102510001C1C1C1C1C00007F7F7F70707070707012
:10252000707070707070700000000000000000009B
:1025300000000000000000FEFEFE0E0E0E0E0E0E4D
:102540000E0E0E0E0E0EFFFFFF1C1C1C1C1C1C1C76
:102550001C1C1C00007F7F7F0000000000000000AA
:10256000000000000000000000000000000000006B
:1025700000000000C0F0F8783C1C1E0E0E0E0E0E7F
:102580000E1C3C78F8E080FFFFFF81000000000097
:102590000000707070707070F0F0F000030F1F1E7C
:1025A0003C38787070707070707838381F1F0F006A
:1025B000000000000000000000000000000000001B
:1025C000000000FEFEFE0000000000000000000011
:1025D0000000FEFEFEFFFFFF1C1C1C1C1C1C1C1C24
:1025E0001C1C1C1CFFFFFF7F7F7F00000000000001
:1025F0000000000000007F7F7F000000000000005E
:102600000000000000000000000000FEFEFEFFFFD2
:10261000FF7F7F7F0000000000000000000000003E
:10262000FEFEFE000000000000000000FFFFFF0FA4
:102630001F3F7870707070783F1F0F00000000001F
:1026400000000000000000FEFEFE0000000080C050
:10265000E0F0783C1E0E060200FFFFFF783C1E1FD4
:102660003F7FF1E0C00000000000007F7F7F00009E
:10267000000000000103070F3E7C70604000000076
:10268000000000000000000000000000000000FE4C
:10269000FEFE0000000000000000000000FFFFFF41
:1026A00000000000000000000000007F7F7F7070CD
:1026B000707070707070707070000000000000002A
:1026C00000000000000000FEFEFE3EFCF8C000001E
:1026D0000000000000C0F8FC3EFEFEFEFFFFFF0011
:1026E000010FFFFCE0000000E0FCFF0F0100FFFF16
:1026F000FF7F7F7F00000000073F7F787F7F07001C
:102700000000007F7F7F000000000000000000004C
:102710000000000000000000000000FEFEFE3E7809
:10272000F0C00000000000000000FEFEFEFFFFFF02
:10273000000001030F1E78F0C0800000FFFFFF7F44
:102740007F7F0000000000000000030F1E7C7F7FE1
:102750007F000000000000000000000000000000FA
:1027600000000000C0F0F8783C1C1E0E0E0E0E0E8D
:102770001E1C3C78F0E0C000FFFFFF81000000005D
:1027800000000000000000000081FFFFFF00030FB9
:102790001F1E3C3878707070707078383C1E1F0FA8
:1027A0000300000000000000000000000000000026
:1027B00000000000000000FEFEFE0E0E0E0E0E0ECB
:1027C0000E0E0E1E3CFCF8E0FFFFFF38383838389C
:1027D000383838383C1E1F0F037F7F7F0000000011
:1027E00000000000000000000000000000000000E9
:1027F000000000000000000000000000C0F0F878B9
:102800003C1C0E0E0E0E0E0E1C3C78F8F0C00000A4
:10281000FFFFFF810000000000000000000000003A
:1028200081FFFF7F0000030F1F1E3C387070707225
:1028300076763C3C3E7F77E3C0400000000000001D
:10284000000000000000000000000000000000FE8A
:10285000FEFE0E0E0E0E0E0E0E0E0E0E1E1CFCF8C2
:10286000E000FFFFFF1C1C1C1C1C1C3CFCFCDC9E35
:102870000F0F0701007F7F7F0000000000000000B5
:1028800001030F1F7E787040000000000000000070
:10289000000000000000000000000000E0F8FC1C48
:1028A0001E0E0E0E0E0E1E3C7C786000808183078B
:1028B0000E0E0C1C1C1C38383870F0E0C0030F1FC3
:1028C0003E3C78707070707070383C1F1F070000BD
:1028D0000000000000000000000000000000000EEA
:1028E0000E0E0E0E0E0EFEFEFE0E0E0E0E0E0E0E38
:1028F00000000000000000FFFFFF000000000000DB
:1029000000000000000000007F7F7F00000000004A
:1029100000000000000000000000000000000000B7
:10292000000000FEFEFE00000000000000000000AD
:102930000000FEFEFEFFFFFF0000000000000000A0
:1029400000000000FFFFFF030F1F3E38787070701B
:1029500070707078383E1F0F030000000000000008
:102960000000000000000000000000063EFEFCE049
:10297000000000000000000000E0FCFE3E06000039
:10298000010F7FFFF8C0000000C0F8FF7F0F0100BB
:10299000000000000000031F7F7E707E7F1F030089
:1029A0000000000000000000000000000000000027
:1029B00000000000000000067EFEF880000000001D
:1029C0000000F0FEFE0EFEFEF000000000000080A1
:1029D000F8FE7E0600000FFFFFF8000000F0FFFF8A
:1029E0000F0000000FFFFFF0000000F8FFFF0F00D6
:1029F00000000000000F7F7F707F7F0F000000004D
:102A00000000000F7F7F707F7F0F0000000000003C
:102A100000000000000000000000000000000000B6
:102A200000000000000000000000000002061E3E42
:102A3000FCF0E0800080E0F0FC3E1E06020000009A
:102A400000000080E1F7FF3EFFF7E180000000009A
:102A5000004060787C3F0F070100000001070F3F36
:102A60007C786040000000000000000000000000D2
:102A70000000000000000002061E7CF8F0C080008C
:102A8000000080E0F0FC7E1E060200000000000353
:102A9000071FFEF8FE1F07030000000000000000F3
:102AA00000000000007F7F7F0000000000000000A9
:102AB0000000000000000000000000000000000016
:102AC000000000000E0E0E0E0E0E0E0E0ECEEEFECE
:102AD0007E3E1E0000000080C0E0F07C3E0F070339
:102AE0000100000000787C7E7F77737070707070DA
:102AF0007070707070700000000000000000000036
:102B000000000000000000FEFEFE0E0E0EFFFFFFA4
:102B1000000000FFFFFF000000F8F8F8E0E0E0062A
:102B20007EF8C00000000000033FFCC00000000071
:102B300000031F7E000000000000000E0E0EFEFECF
:102B4000FE000000FFFFFF000000FFFFFFE0E0E0ED
:102B5000F8F8F8000080E0FC3E3EFCE08000001049
:102B60001E1F0F010000010F1F1E100000000000BB
:102B70000000000000000000000000000000000055
:102B80000000000000000000000000000000000045
:102B90000000000000000000000000000000000035
:102BA0000000000000000000000000000000000025
:102BB000000000000000E0E0E0E0E0E0E0E0E0E055
:102BC000E0E0E0E0E0E0E002060E1C1000000000A3
:102BD0000000000000000000000000000000008075
:102BE0008080808080000000000C8E8FC7C3C3C32C
:102BF000636367FFFFFC001E3F7F79707070703861
:102C00001C3F7F7F4000000000000000000000002B
:102C1000000000FEFEFE000080808080800000003A
:102C200000FFFFFF0E0703030303070FFFFCF07F06
:102C30007F7F1C3870707070783C1F0F030000009D
:102C40000000000000000000000000000000008004
:102C50008080808080000000F0FEFF0F07030303E8
:102C600003070F0E0C071F3F3C78707070703C3EDE
:102C70001E06000000000000000000000000000030
:102C800000000080808080800000FEFEFEF0FCFFDF
:102C90000F0703030303070EFFFFFF030F1F3C781B
:102CA00070707070381C7F7F7F0000000000000093
:102CB0000000000000000000000000008080808014
:102CC0000000000000F0FCFECFC7C3C3C3C3C7CFE2
:102CD000FEFCF0030F1F3C387070707070383C1CA5
:102CE0000400000000000000000000000000008060
:102CF00080F8FCFE8E8E8E0303FFFFFF03030300AC
:102D0000007F7F7F00000000000000000000000046
:102D100000000080808080800000808080F0FCFFC8
:102D20000F0703030303070FFFFFFF030F3F3C7869
:102D300070707070383CFFFFFF187878F0E0E0E0CA
:102D4000E0E0F078783808FEFEFE000080808080A9
:102D500080000000FFFFFF0E070303030307FFFFD0
:102D6000FC7F7F7F000000000000007F7F7F00006D
:102D700000000000000000000000008E8E8EFFFFAB
:102D8000FF7F7F7F00000000008E8E8E0000FFFF1F
:102D9000FF0000FFFFFFE0E0F87838FEFEFE0000D5
:102DA0000000000080808080FFFFFFE070F8FCCE14
:102DB00007070301007F7F7F00000003071F7C7867
:102DC000604000000000000000000000000000FE65
:102DD000FEFEFFFFFF7F7F7F0000008080800000FD
:102DE0008080808000000000008080808080000063
:102DF000FFFFFF0E0703030307FFFFFC0E0703039C
:102E00000307FFFFFE7F7F7F0000000000007F7F41
:102E10007F0000000000007F7F7F000000000000B6
:102E20000000000000000000000000000000008022
:102E3000808000008080808080000000FFFFFF0E07
:102E4000070303030307FFFFFC7F7F7F00000000F1
:102E50000000007F7F7F00000000000000000000F5
:102E60000000000000000000808080800000000062
:102E700000F0FCFE0F0703030303070FFEFCF00343
:102E80000F1F3C3870707070383C1F0F030000003B
:102E900000000000000000000000008080800000B2
:102EA000808080808000000000FFFFFF0E0703038A
:102EB0000303070FFFFCF0FFFFFF1C3870707070FA
:102EC000783C1F0F03F8F8F8000000000000000035
:102ED00000000000000000808080800000008080F2
:102EE00080F8FEFF0F0703030303070EFFFFFF0336
:102EF0000F1F3C7870707070381CFFFFFF000000DF
:102F00000000000000000000F8F8F88080800080D9
:102F1000808080FFFFFF0E030303017F7F7F00009F
:102F200000000000000000000000000000008080A1
:102F300080808080000000001E3F3F737361E1E3EA
:102F4000C3C7C784000C1C3C787070707070393F28
:102F50001F0F0000000000000000000000000080C3
:102F600080F8FCFC8080800303FFFFFF0303030065
:102F7000003F7F7F70707000000000000000008044
:102F8000808000000000000000808080FFFFFF00C4
:102F9000000000000000FFFFFF0F3F3F78707070DF
:102FA00030380C7F7F7F0000000000000000000030
:102FB0000000008080800000000000000000008011
:102FC000808000071FFFF8C0000000C0F8FF3F0727
:102FD0000000000000071F7E707E1F070000000039
:102FE0000000000000000000000000000000008061
:102FF0008080000000000000808080000000000051
:1030000000808080031F7FFCE00000C0FE7F033F44
:10301000FEC00000E0FC7F1F03000000031F7F785C
:103020007F07000000077F787F1F0300000000007B
:103030000000000000000000000000000000000090
:103040000000008080800000000000000000808000
:10305000800001070F3EF8F0F0F83E0F0701004036
:1030600060783C1F070303071F3C786040000000A6
:1030700000000000000000000000008080800000D0
:103080000000000000000080808000071FFFF8E0C3
:10309000000000C0F8FF3F070000000000071FFF0E
:1030A000F8FF3F07000000000000E0E0E0F878389B
:1030B0000000000000000000808080808080808010
:1030C00080808080800003030383C3E3F3737B3F2E
:1030D0001F0F07787C7E7F777371707070707070CF
:1030E0007000000000000000000000000000000070
:1030F0000000F8FCFE1E0E0EE0E0B0BF1F0F000047
:1031000000000003FFFFFE0000000000003878F818
:10311000E0E0E0FEFEFFFFFFFFF8F80E0E0EFEFC03
:10312000F80000000000000F1FBFB0E0E00000004A
:10313000FEFFFF030000E0E0F0F878380000000038
:10314000000000000000000000000000000000700F
:10315000381C1C1C1C3C3870F0E0E0E0E0703800CB
:10316000000000000000000000000000000000005F
:10317000000000000000000000000000000000F05F
:1031800010101010101010101010101010F0FF0080
:10319000000000000000000000000000FF7F404031
:1031A00040404040404040404040407F00000000E0
:1031B0000000000000000000000000465F53746142
:1031C0007274205B4D487A5D00465F53746F7020C7
:1031D0005B4D487A5D0011241FBECFEFD0E1DEBF0A
:1031E000CDBF11E0A0E0B1E0E2EBF0E600E00BBF04
:1031F00002C007900D92AA36B107D9F712E0AAE6ED
:10320000B1E001C01D92A933B107E1F70E948D2AF8
:103210000C9457300C9400008FE28BBB8BB3806C06
:103220008BBB88E08093610080936200A29A08952E
:103230001F920F920FB60F9211240BB60F922F937D
:103240003F934F935F936F937F938F939F93AF932E
:10325000BF93EF93FF93F8940E94BB1980912C01C8
:1032600090912D01019790932D0180932C0100974F
:1032700061F48091240281608093240288EE93E0BF
:1032800090932D0180932C0108C06AE070E00E94A9
:10329000F52C892B11F40E9461197894FF91EF911C
:1032A000BF91AF919F918F917F916F915F914F915E
:1032B0003F912F910F900BBE0F900FBE0F901F905C
:1032C000189530916C0129B389B399B38470287033
:1032D000822B9372892B8095832790916D0198237F
:1032E000909590936D0120916E01282329272093BA
:1032F0006E018923822390916C01982790936C0131
:1033000090916B0120916C012823292B20936B0154
:1033100080916C0181E380936F010895F8949091FE
:103320006B01892390916B01982790936B0178949E
:103330000895F89490916A01892390916A019827E1
:1033400090936A0178940895CF9902C080E001C0FB
:1033500083E0CE9B02C091E0892780937001109298
:103360007201109271018AE083BF89EF81BF87B734
:10337000826087BF089580917301909174010097D6
:1033800029F00197909374018093730149B3441F0E
:103390004427441FCE9B02C083E0482780912E0122
:1033A000542F581B50FF29C0209171013091720198
:1033B00080917301909174018B3E910528F444969D
:1033C000909374018093730140932E018091730157
:1033D0009091740146E0969587954A95E1F751FFE3
:1033E00004C0820F931F019604C080959095820FB0
:1033F000931F90937201809371010895F8948091C6
:103400007101909172019C012370332730937201F6
:103410002093710178949595879595958795089552
:1034200087FF06C09DE290937501819541E001C040
:1034300040E0242F30E08A3084F4662331F0F90133
:10344000EB58FE4F90E390834F5FA42FB0E0AB5852
:10345000BE4F805D8C934F5F2BC0F901EB58FE4F40
:10346000843674F46AE00E94E72C805D8083A42F88
:10347000AF5FB0E0AB58BE4F905D9C934E5F18C0FD
:1034800091E3908364E60E94E72C892FE42FEF5F9D
:10349000F0E0EB58FE4F6AE00E94E72C805D8083ED
:1034A000A42FAE5FB0E0AB58BE4F905D9C934D5FD4
:1034B000E42FF0E0EB58FE4F108285E791E008958D
:1034C0000F9300E02FE24FE760E180E00E943E2290
:1034D0000F9108950F9300E020E14FE760E080E056
:1034E0000E943E220F9108950F93CF93DF93EC013A
:1034F0000E946A1A0FEF20E04FE76DE080E00E9423
:103500003E2263E082E00E9418206FEF82E00E947A
:10351000871F888199810E94DB216FEF81E0DF9115
:10352000CF910F910C94871F0F931F93CF93DF932D
:10353000D82FC62F0FEF20E045E00E943E221D2F1E
:103540001D5F6C2F62504FEF812F0E941B22DC5FAA
:103550006C2F61504FEF8D2F0E941B226C2F6E5FDE
:103560004FEF812F0E941B226C2F6F5F4FEF8D2F2B
:10357000DF91CF911F910F910C941B22FF920F931B
:103580001F93CF93DF938C01EB018BE0489FF02CCE
:10359000112481E1F80E6F2D82E00E941820C801ED
:1035A0000E94DB2100E02AE04BE16F2D84E60E94BF
:1035B0003E226F2D84E60E941820CE01DF91CF912C
:1035C0001F910F91FF900C94FC21EF92FF920F93AB
:1035D0001F93CF93DF938C01EB01E22E8BE0489F8A
:1035E000F02C112481E1F80E6F2D82E00E9418204A
:1035F000C8010E94DB2100E02AE04BE16F2D8E2DF7
:103600000E943E226F2D8E2D0E941820CE01DF9148
:10361000CF911F910F91FF90EF900C94FC210F938D
:103620001F93CF93DF93EC018BE0689F102D112443
:103630001F5E00E02AE04FE7612F80E00E943E22FB
:103640000FC0AC2FBD2FFD0101900020E9F731978D
:10365000EA1BFB0BCE018E0F911DFC0131971082EE
:10366000CE010E94C91F8138910558F720E830E04B
:10367000281B390B36952795612F822F0E94182021
:10368000CE01DF91CF911F910F910C94FC2180E826
:1036900096E9A8E9B0E08093340290933502A093B4
:1036A0003602B093370288E08093380208950F9372
:1036B0001F9380916200877F8093620048E150E011
:1036C00000E010E098011FB8779BFECF8FB190E02B
:1036D000A0E0B0E0042E04C0880F991FAA1FBB1FF2
:1036E0000A94D2F7082B192B2A2B3B2B485051094F
:1036F000483F8FEF580739F78091620088608093C8
:103700006200B801C9011F910F910895EF92FF92D5
:103710000F931F93CF93DF93CDB7DEB72F970FB6DD
:10372000F894DEBF0FBECDBF882331F08FEF9FEF3F
:103730009093300180932F0181E00E94E925192F99
:10374000E82EF92E80912F0190913001E816F906AC
:1037500069F100E02AE044E160E18CE30E943E224E
:103760001F93EF9285E491E09F938F938E010F5FFB
:103770001F4F1F930F930E94802D6FEF81E00E94D7
:10378000871F61E180E00E94182083ED90E00E9495
:10379000DB2161E18CE30E941820C8010E94FC211A
:1037A0000F900F900F900F900F900F90F0923001AC
:1037B000E0922F012F960FB6F894DEBF0FBECDBF5B
:1037C000DF91CF911F910F91FF90EF900895EF92AD
:1037D000FF920F931F93CF93DF93CDB7DEB72F9751
:1037E0000FB6F894DEBF0FBECDBF882331F08FEF48
:1037F0009FEF909332018093310180E00E94E92590
:10380000192FE82EF92E8091310190913201E8169E
:10381000F90669F100E02AE044E16AE18CE30E94E4
:103820003E221F93EF9285E491E09F938F938E0148
:103830000F5F1F4F1F930F930E94802D6FEF81E04A
:103840000E94871F6BE180E00E9418208BED90E0C2
:103850000E94DB216BE18CE30E941820C8010E94CA
:10386000FC210F900F900F900F900F900F90F092FF
:103870003201E09231012F960FB6F894DEBF0FBEF1
:10388000CDBFDF91CF911F910F91FF90EF900895E1
:10389000EF92FF920F931F93CF93DF93CDB7DEB7D5
:1038A0002F970FB6F894DEBF0FBECDBF882331F03F
:1038B0008FEF9FEF909334018093330182E00E9459
:1038C000E925192FE82EF92E8091330190913401CA
:1038D000E816F90669F100E02AE044E164E28CE3CD
:1038E0000E943E221F93EF9285E491E09F938F9375
:1038F0008E010F5F1F4F1F930F930E94802D6FEF5C
:1039000081E00E94871F65E280E00E94182083EE1C
:1039100090E00E94DB2165E28CE30E941820C80140
:103920000E94FC210F900F900F900F900F900F901E
:10393000F0923401E09233012F960FB6F894DEBF77
:103940000FBECDBFDF91CF911F910F91FF90EF90F0
:103950000895EF92FF920F93CF93DF93CDB7DEB729
:103960002F970FB6F894DEBF0FBECDBF90913802EF
:1039700020913501921761F11F929F9388E491E0A5
:103980009F938F93EE24E394F12CEC0EFD1EFF9297
:10399000EF920E94802D6FEF83E00E94871F00E06E
:1039A00024E142E26CE18DE50E943E226CE185E576
:1039B0000E941820C7010E94FC2180913802809348
:1039C00035010F900F900F900F900F900F900CC03B
:1039D000882351F000E024E145E16CE18AE60E9491
:1039E0003E2280E1809335012F960FB6F894DEBF1A
:1039F0000FBECDBFDF91CF910F91FF90EF90089553
:103A0000EF92FF920F931F93CF93DF93CDB7DEB763
:103A10002F970FB6F894DEBF0FBECDBF482F609131
:103A200034027091350280913602909137020091F4
:103A3000360110913701209138013091390160171A
:103A400071078207930709F43FC020E432E44FE096
:103A500050E00E941D2D5F934F933F932F9381E57C
:103A600091E09F938F93EE24E394F12CEC0EFD1ED6
:103A7000FF92EF920E94802D6FEF83E00E94871FDC
:103A800000E024E141E260E38CE00E943E2260E33A
:103A90008CE00E941820C7010E94FC218091340212
:103AA00090913502A0913602B09137028093360191
:103AB00090933701A0933801B09339010FB6F89471
:103AC000DEBF0FBECDBF15C0442399F000E024E156
:103AD00041E260E389E10E943E2281E095E6ADEC9F
:103AE000BDE18093360190933701A0933801B093E4
:103AF00039012F960FB6F894DEBF0FBECDBFDF9110
:103B0000CF911F910F91FF90EF900895CF92DF9288
:103B1000EF92FF920F93CF93DF93CDB7DEB72F973E
:103B20000FB6F894DEBF0FBECDBFC0903402D09068
:103B30003502E0903602F090370240913A01509100
:103B40003B0160913C0170913D01C416D506E6062B
:103B5000F70609F455C0C701B60120E432E44FE08E
:103B600050E00E941D2D60E472E48FE090E00E941E
:103B7000D72CA7019601261B370B480B590BCA01FE
:103B8000B90128EE33E040E050E00E941D2D5F9324
:103B90004F933F932F938BE591E09F938F93EE2468
:103BA000E394F12CEC0EFD1EFF92EF920E94802D0B
:103BB0006FEF83E00E94871F00E024E142E460E3AE
:103BC0008CE30E943E2260E38CE30E941820C70130
:103BD0000E94FC218091340290913502A09136021E
:103BE000B091370280933A0190933B01A0933C013E
:103BF000B0933D010FB6F894DEBF0FBECDBF15C028
:103C0000882399F000E024E142E460E38CE30E9421
:103C10003E2281E095E6ADECBDE180933A019093C0
:103C20003B01A0933C01B0933D012F960FB6F89451
:103C3000DEBF0FBECDBFDF91CF910F91FF90EF9010
:103C4000DF90CF9008950E94601A81E00E94A91C25
:103C500080E00E94A91C81E00E94001D80E00E947B
:103C6000001D81E00E94861D80E00E94861D81E08B
:103C70000E94861B81E00E94E71B81E00E94481C95
:103C800040913402509135026091360270913702B2
:103C90008AE090E00C9473250E94601A6FEF83E035
:103CA0000E94871F6EE28EE00E9418208CEE90E04A
:103CB0000C94DB2180E00E94861B80E00E94E71BC1
:103CC00080E00E94481C80917F01823059F083304F
:103CD000A1F08130C9F490918001911180E00E949F
:103CE000001D15C080E00E94001D81E090918001C0
:103CF000911180E00E94861D0AC080E00E94861D0E
:103D000081E090918001911180E00E94A91C809136
:103D100080018F5F8A3019F080938001089510929E
:103D200080010895109280016430C9F410923E0120
:103D300080917F01811102C081E003C0813021F4B4
:103D400082E080937F010BC0823011F483E0F9CFD1
:103D5000833029F410927F0181E080933E018091AD
:103D60003E0108950F931F9380917F01823009F4E3
:103D700071C0833021F0813009F0C3C012C080913E
:103D80003802860F803108F401C08FE0809338023A
:103D9000809138020E94DA2580E01F910F910C94E7
:103DA000A91CA62FBB27A7FDB09520E432E44FE065
:103DB00050E00E94CF2C00913402109135022091E6
:103DC000360230913702600F711F821F931F6130DE
:103DD0002AEC72072AE982072BE3920748F46093E2
:103DE000340270933502809336029093370208C0F4
:103DF000109234021092350210923602109237025D
:103E00008091340290913502A0913602B091370230
:103E100081309546AD4CBD4160F080E095E6ADEC5B
:103E2000BDE18093340290933502A0933602B093A3
:103E30003702409134025091350260913602709100
:103E400037028AE090E00E94732580E01F910F9175
:103E50000C94001DA62FBB27A7FDB09528EE33E0DC
:103E60000E94C82C00913402109135022091360234
:103E700030913702600F711F821F931F61302AEC4F
:103E800072072AE982072BE3920748F46093340211
:103E900070933502809336029093370208C01092D7
:103EA000340210923502109236021092370280913D
:103EB000340290913502A0913602B09137028130E0
:103EC0009546AD4CBD4160F080E095E6ADECBDE1BE
:103ED0008093340290933502A0933602B093370258
:103EE0004091340250913502609136027091370250
:103EF0008AE090E00E94732580E01F910F910C945E
:103F0000861D1F910F910895FC018491089560937F
:103F10008101813019F489EF90E013C0823019F4E7
:103F200081E194E00EC0833019F48AEE97E009C075
:103F3000843019F486E591E104C0853031F48DE4D4
:103F40009DE19093830180938201089520918201E5
:103F500030918301F90134969491F9013596449199
:103F6000803299F0891798F0682F70E050E0490F7F
:103F7000511D641775075CF4891BE82FF0E0369635
:103F8000E20FF31F84918F5F089586E0089580E02B
:103F900008950F931F93CF93DF93EC0100E010E09F
:103FA00004C00E94A61F080F111D89918111F9CF2D
:103FB000C801DF91CF911F910F9108950F931F9327
:103FC000CF93DF938C01C0E0D0E008C00F5F1F4F9C
:103FD000FC0184910E94A61FC80FD11DC801F801E1
:103FE00024912111F3CFCE01DF91CF911F910F9139
:103FF0000895AD9A000000000000000000000000DD
:104000000000AD9880E28A95F1F70895611103C030
:10401000A998A89A04C0613011F4A898A99AAC98FC
:10402000AB9882BB8FEF81BB0E94F91F12BA089533
:10403000CF9387FD80E0603408F06FE380938401C4
:1040400060938501669566956695609386018034D8
:1040500018F0805461E001C060E080640E94062096
:10406000C0918601C86B60E08C2F0E94062061E041
:104070008C2FCF910C9406201F93CF93DF931F9228
:10408000CDB7DEB711BA90918401903418F4A99895
:10409000A89A02C0A898A99A90918401903431F40A
:1040A000882321F061E080E40E940620AC9AAB9A5C
:1040B000AD9A0000000000000000000010B3AD98B1
:1040C000198203C099819F5F998389818830D0F3D9
:1040D0008FEF81BB60918501809184010E9418203F
:1040E000812F0F90DF91CF911F91089581E00E9461
:1040F0003C2080E00C943C20CF92DF92EF92FF9224
:104100000F931F93CF93DF931F92CDB7DEB7C82EC7
:104110008091840187FD6AC0803418F4A998A89A18
:1041200002C0A898A99A80918401803419F461E0B2
:104130000E940620AC9AAB988FEF81BB90918501CD
:10414000977009F44AC0F5B299830E94762099814C
:10415000F3FE02C0AB9A01C0AB98F4FE02C0AC9A69
:1041600001C0AC98F0FE02C0A89A01C0A898F1FE68
:1041700002C0A99A01C0A998EE24EA94E1BAD12C10
:10418000092F10E0960101C0220F9A95EAF7282B1B
:1041900022BB0E94F91F60918501685F80918401B4
:1041A0000E9418200E947620F5BAE1BA28E030E09B
:1041B000201B310BA60102C0559547952A95E2F7C1
:1041C000842B82BB0E94F91F609185016850809109
:1041D00084018F5F0E94182008C0C2BA0E94F91F94
:1041E000809184018F5F8093840112BA0F90DF91D8
:1041F000CF911F910F91FF90EF90DF90CF90089596
:104200002F923F924F925F926F927F928F929F92E6
:10421000AF92BF92CF92DF92EF92FF920F931F93D4
:10422000CF93DF9300D000D01F92CDB7DEB720919F
:10423000820130918301F9013396C490F9013496DB
:104240009491F9013596A4912090840140918501C3
:104250004983803221F4422D4A5F409384018917BB
:1042600008F48EC0682F70E04A2F50E0490F511DAE
:10427000641775070CF084C0891BB9016A5F7F4F12
:10428000FB0140E050E004C09491490F511D31966C
:104290009E2F961B9817C0F3D12C8601095F1F4FE4
:1042A00093E0159507959A95E1F7409FB001419FDE
:1042B000700D509F700D11244A2F50E04A5F5F4FE0
:1042C000460F571F5D834C83E82FF0E03696E20FD0
:1042D000F31F549028E0E22EF12C412C312C4601A2
:1042E00043C0A701481959095B834A83612C712C8B
:1042F000AC80BD80A40CB11C21C0C501860D971DEA
:10430000E0918201F0918301E80FF91F8491CE14AE
:10431000DF044CF4E82FF0E00A8002C0F595E79541
:104320000A94E2F78E2F909181019F3F09F401C01A
:1043300080950E947C205FEF651A750A6514E8F28B
:10434000809181018F3F11F480E001C08FEF0E94C6
:104350007C2060918501685F822D0E941820339433
:10436000450C88E0E80EF11C301608F4BACF822D17
:104370008F5F6981850D0E94182020E030E002C027
:1043800021E030E0C9010F900F900F900F900F9037
:10439000DF91CF911F910F91FF90EF90DF90CF9021
:1043A000BF90AF909F908F907F906F905F904F9055
:1043B0003F902F9008951F93CF93DF93EC011091BE
:1043C000840112C08A3069F4E0918201F091830186
:1043D0003396649180918501680F812F0E94182087
:1043E00002C00E9400212196FE0184918111EACF32
:1043F000DF91CF911F9108951F93CF93DF93109179
:104400008401EC0111C08A3069F4E0918201F091DD
:1044100083013396649180918501680F812F0E94FA
:10442000182002C00E94002189918111ECCFDF91F8
:10443000CF911F9108951F93CF93DF931F92CDB714
:10444000DEB7162F687F49830E9418200E947620CD
:104450001770498121E030E0012E01C0220F0A943B
:10446000EAF74F3F11F4282B02C020952823822F12
:104470000F90DF91CF911F910C947C209F92AF926F
:10448000BF92CF92DF92EF92FF920F931F93CF9341
:10449000DF93D82E142FC22EC394262F2770A62E5A
:1044A000A21ACC2DD0E0E8E0F0E0CF01821B910908
:1044B000C817D90764F4CF018C1B9D0BEFEFF0E018
:1044C00002C0F595E7958A95E2F7BC2C04C038E068
:1044D000B32EB21AEFEFEE2E01C0EE0C2A95EAF7DA
:1044E0009E2C6A2D8D2D0E941820F12CE0940E94A4
:1044F00076200F3F11F4892901C08E210E947C2073
:10450000F3941F15A0F7FA2CBA180DC088E0F80E26
:104510006F2D8D2D0E941820E12C802F0E947C2071
:10452000E3941E15D0F72B2D2F0DE22FF0E0CF01D5
:1045300007968C179D0754F32C15F0F4CE1BDF0B58
:104540002FEF30E001C0220FCA95EAF7D22FD095A5
:104550006F2D685F8D2D0E941820C0E0FD2EF09415
:104560000E9476200F3F11F48D2B01C08F210E94F5
:104570007C20CF5F1C17A0F7DF91CF911F910F9187
:10458000FF90EF90DF90CF90BF90AF909F900895F5
:104590000F931092840110928501109286018FEF83
:1045A0008093810189EF90E0909383018093820151
:1045B000AC9A84B38B6384BBAA98A29A85E38A954C
:1045C000F1F70000AA9A8FE39CE90197F1F700C088
:1045D000000060E08FE30E94062061E08FE30E940C
:1045E000062060E080EC0E94062061E080EC0E94E2
:1045F000062000E02FE34FE760E080E00E943E22CB
:1046000060E080E00F910C9418202F923F924F921F
:104610005F926F927F928F929F92AF92BF92CF9252
:10462000DF92EF92FF920F931F93CF93DF93CDB75B
:10463000DEB72B970FB6F894DEBF0FBECDBF482E66
:10464000362E942F222EC02ED12C222733272C1920
:104650003D09220F331F2D5F3F4F3B872A87342FA1
:10466000380F3983301B3A83132F66E0862E912C46
:10467000A12CB12C702E730C602E680E522D530D90
:104680005B83501B5C83F32CF81AF20CF41A572D41
:104690005C19362D3A194E2D652F832FA8863F833E
:1046A0005D8399870E941B222885772D721B262DFA
:1046B0002C194E2D672F822F28877E830E941B2264
:1046C0004E2D5D81652F812F0E941B225A815C0D2A
:1046D0004E2D7E81672F852F5D830E941B227C815A
:1046E0007C0D4E2D672F812F7E830E941B225F2C15
:1046F000510E4E2D652D5D81852F0E941B224E2D62
:104700007E81672F3F81832F0E941B224E2D652DB6
:104710002885822F0E941B2299852A853B8537FF99
:1047200005C0280D391D3B872A8712C095012C1919
:104730003D09220F331F220F331F265F3F4F4A854B
:104740005B85420F531F5B874A8751E0C51AD1082A
:104750008FEFA81AB80A1F5FE4E08E0E911CCA14EE
:10476000DB040CF094CF102F1195110FF12EF90EE0
:104770000E2D20E04F2D632D862D0E943E2220E03D
:104780004F2D6B81862D0E943E22210E222D40E06E
:10479000672D842D0E943E22222D40E0672D8981C5
:1047A0000E943E222B960FB6F894DEBF0FBECDBFFF
:1047B000DF91CF911F910F91FF90EF90DF90CF90FD
:1047C000BF90AF909F908F907F906F905F904F9031
:1047D0003F902F900895EF92FF920F931F93CF93E6
:1047E000DF93C82FD62FE42EF22E20E00E943E2227
:1047F0006F2D6D0F20E04E2D8C2F0E943E222F2D0D
:1048000040E06D2F8C2F0E943E222F2D40E06D2F17
:104810008E2D8C0F0E943E22DF91CF911F910F9120
:10482000FF90EF9008952F923F924F925F926F9278
:104830007F928F929F92AF92BF92CF92DF92EF9230
:10484000FF920F931F93CF93DF93182F762E342E62
:10485000522E602E841309C0261710F4722E562E85
:10486000252D2719062D40E00AC062130DC04817F8
:1048700010F4142F382E432D411B062D20E0672DF8
:10488000812F0E943E22B3C030E0462F50E0832D9E
:1048900090E0811B9109B901641B750B68177907BA
:1048A00034F4421B530B481759070CF450C031160F
:1048B00030F4872D752C582E812F132D382E311A58
:1048C000E52DF0E0872C912C7F01E818F908C32D25
:1048D000D0E028EC2E9DC0012F9D900D1124BE012B
:1048E0000E94092D6B01372D412CA8ECAA2EB12C6A
:1048F0008E1A9F0A4C9CC0014D9C900D1124B5014D
:104900000E94092D272C260E8436910514F023943D
:1049100004C08D399F4F0CF42A94842D810F062DED
:10492000222D482F632F0E941324322DEC16FD06F2
:1049300024F0751410F43F5F06C08C169D061CF021
:10494000571408F4315043943414A0F650C057144F
:1049500030F4872D752C582E812F132D382E452C91
:104960004718232D30E0A12EB12C7901EA18FB085D
:10497000C42DD0E048EC4E9DC0014F9D900D1124F8
:10498000BE010E94092D6B01E12F512C78EC872E7E
:10499000912CA21AB30A5C9CC0015D9C900D11245D
:1049A000B4010E94092D212E260E8436910514F0A3
:1049B000239404C08D399F4F0CF42A94652D670D04
:1049C000062D262F422D8E2F0E941324E22DEC1649
:1049D000FD0624F0131510F4EF5F06C0AC16BD06FB
:1049E0001CF0311608F4E15053944514A0F6DF9101
:1049F000CF911F910F91FF90EF90DF90CF90BF90DC
:104A0000AF909F908F907F906F905F904F903F906E
:104A10002F900895C0988F718FB9779BFECF80E05B
:104A200090E0640F711D09C0FB01E80FF91F319779
:104A300020812FB9779BFECF0197282F219524172E
:104A400098F3C09A8FE99FE00197F1F700C000004A
:104A5000089570938A01609389015093880140936F
:104A6000870144E067E871E00C940A25811106C0D3
:104A7000DC9840E850E060E070E005C0DC9A40E07F
:104A800050E0BA0180E00E942925C69AC698089590
:104A900087B3876E87BB88B3816A88BB85E08A95B8
:104AA000F1F7000088B38F7588BB82B1846F82B93B
:104AB0001A9A1C988FE0809364008AE080936500C6
:104AC00080E18ABB8DB183658DB9C59AC59840E5F3
:104AD00051E468E175E182E00E942925C69AC698F2
:104AE00080E00C9436253F924F925F926F927F92B6
:104AF0008F929F92AF92BF92CF92DF92EF92FF92EE
:104B00000F931F93CF93DF93EC01CB01BA010E9467
:104B1000D72B29EC30E34FE850E40E943D2C0E9453
:104B2000AB2B4B015C01CE019F739C0140E050E038
:104B300060E070E080E090E000E30E943F2D722E84
:104B4000132FD42FC52F362E472E582E692E782896
:104B50001929DA29CB29A3E9B1E0E8E3F0E0272D10
:104B6000312F4D2F5C2F632D742D852D962D0E2FFB
:104B70000E944E2D2E933897E83F8FEFF80779F774
:104B800048E06BE871E08EE00E940A25C69AC6985C
:104B9000DF91CF911F910F91FF90EF90DF90CF9019
:104BA000BF90AF909F908F907F906F905F904F904D
:104BB0003F900895282F287030E035952795982F3D
:104BC0009470990F922B8370982B9F70909365002F
:104BD000089594E896B9982F906497B9369A3699C3
:104BE000FECF369A3699FECF24B135B13798811170
:104BF00005C080919301909194010DC0813029F4FA
:104C0000809195019091960106C0823031F4809197
:104C1000970190919801281B390BC9010895DF92E3
:104C2000EF92FF920F931F93CF93DF931092940113
:104C30001092930110929601109295011092980192
:104C4000109297018AE0D82EC1E0D4E001E014E090
:104C5000EE24E39494E0F92E80E00E94E9258E157D
:104C60009F0508F47C0181E00E94E92580179107E7
:104C700008F48C0182E00E94E9258C179D0708F456
:104C8000EC01DA9449F7F0929401E09293011093C9
:104C9000960100939501D0939801C0939701DF91FD
:104CA000CF911F910F91FF90EF90DF9008951F9289
:104CB0000F920FB60F9211240BB60F922F938F9372
:104CC0009F93EF93FF938BB19CB18871E091E001CA
:104CD000EF5FEF712091DF01E21739F0E093E0011F
:104CE000F0E0ED51FE4F908301C082E09091DE0133
:104CF000982B9093DE01FF91EF919F918F912F91CF
:104D00000F900BBE0F900FBE0F901F9018951F9223
:104D10000F920FB60F9211240BB60F928F939F93A1
:104D2000EF93FF939091E2018091E101981761F078
:104D3000E091E101EF5FEF71E093E101F0E0ED5F01
:104D4000FD4F80818CB901C05598FF91EF919F91E3
:104D50008F910F900BBE0F900FBE0F901F90189564
:104D60001092E2011092E1011092E0011092DF0135
:104D700097FF03C022E02BB99F779093900089B9E9
:104D800088E98AB986E08093950008959091E001C2
:104D90008091DF01981781F0E091DF01EF5FEF7103
:104DA000E093DF01F0E0ED51FE4F20818091DE01C4
:104DB0001092DE0130E002C020E031E0C901089528
:104DC0009091E2019F5F9F712091E1019217E1F3C1
:104DD000E92FF0E0ED5FFD4F80839093E201559A5B
:104DE0000895CF93DF93EC0102C00E94E0268991E1
:104DF0008111FBCFDF91CF910895CF93DF93EC0129
:104E000002C00E94E026FE01219684918111F9CF13
:104E1000DF91CF9108951F920F920FB60F92112438
:104E20000BB60F922F938F939F93EF93FF938091E5
:104E30009B0090919C008871E0919B01EF5FEF7166
:104E400020919A01E21739F0E0939B01F0E0E256DD
:104E5000FE4F908301C082E090919901982B90932E
:104E60009901FF91EF919F918F912F910F900BBE20
:104E70000F900FBE0F901F9018951F920F920FB6B4
:104E80000F9211240BB60F928F939F93EF93FF9382
:104E900090919D0180919C01981769F0E0919C018F
:104EA000EF5FEF71E0939C01F0E0E254FE4F8081F0
:104EB00080939C0005C080919A008F7D80939A001A
:104EC000FF91EF919F918F910F900BBE0F900FBEAE
:104ED0000F901F90189510929D0110929C011092B6
:104EE0009B0110929A0197FF04C022E020939B003F
:104EF0009F77909398008093990088E980939A0017
:104F000086E080939D00089590919B0180919A0185
:104F1000981781F0E0919A01EF5FEF71E0939A01A9
:104F2000F0E0E256FE4F20818091990110929901A4
:104F300030E002C020E031E0C901089590919D0168
:104F40009F5F9F7120919C019217E1F3E92FF0E0A0
:104F5000E254FE4F808390939D0180919A0080627D
:104F600080939A000895CF93DF93EC0102C00E94D2
:104F70009E2789918111FBCFDF91CF910895CF9327
:104F8000DF93EC0102C00E949E27FE0121968491CE
:104F90008111F9CFDF91CF91089588EE93E0A0E0E1
:104FA000B0E08093270290932802A0932902B09347
:104FB0002A0280E896E9A8E9B0E080932B0290935A
:104FC0002C02A0932D02B0932E0288E0809333022E
:104FD00010922F021092300210923102109232027F
:104FE00008950F93CF93C1E00FEF2FE34C2F6CE3A5
:104FF0008C2F0E941324CB5FC338B1F720E04DE71C
:105000006CE381E00E943E22CF910F9108950F93AF
:1050100000E02BE24FE764E180E00E943E220F9126
:105020000895CF92DF92EF92FF9269E381E00E94B0
:105030001820609127027091280280912902909196
:105040002A0220E4C22E22E4D22E2FE0E22EF12CFE
:10505000A70196010E941D2D60E0822F0E94101A68
:105060000E94FC2169E388E70E94182060912B02CE
:1050700070912C0280912D0290912E02A701960131
:105080000E941D2D60E0822F0E94101AFF90EF9069
:10509000DF90CF900C94FC212F923F924F925F9221
:1050A0006F927F928F929F92AF92BF92CF92DF9238
:1050B000EF92FF920F931F93CF93DF934C010E94C7
:1050C000F12760912B0270912C0280912D0290911A
:1050D0002E02C0902702D0902802E0902902F09082
:1050E0002A026C197D098E099F092EE730E040E005
:1050F00050E00E941D2D29013A01C12CD12C7601CE
:1051000010E05CE3352E01C0122D40912702509132
:1051100028026091290270912A024C0D5D1D6E1DBE
:105120007F1D8AE090E00E947325F4018281823025
:1051300011F480E003C0833021F482E00E94E9256D
:10514000EC01212E239400E02CE241E06FE0822D5F
:105150000E943E229E0136952795111107C0632DAE
:10516000621B4FEF822D0E941B220CC0F32DF21BFD
:105170002F2FB694A794632D6A190FEF422D812F1C
:105180000E941324C40CD51CE61CF71C5E018EE79C
:105190002812BACFDF91CF911F910F91FF90EF901E
:1051A000DF90CF90BF90AF909F908F907F906F9047
:1051B0005F904F903F902F900895CF93DF9300D052
:1051C000CDB7DEB789839A830E94601A89819A815C
:1051D0000F900F90DF91CF910C944C2810922502E4
:1051E000109226020E94CD270C94471B0F931F9309
:1051F000CF93DF93CDB7DEB72A970FB6F894DEBF13
:105200000FBECDBF609127027091280280912902C4
:1052100090912A0220E432E44FE050E00E941D2DDC
:105220005F934F933F932F9385E691E09F938F93E6
:105230008E010F5F1F4F1F930F930E94802D40E040
:10524000B8018BEB91E30E94BE1A0FB6F894DEBF53
:105250000FBECDBF2A960FB6F894DEBF0FBECDBFEE
:10526000DF91CF911F910F9108950F931F93CF93CB
:10527000DF93CDB7DEB72A970FB6F894DEBF0FBE27
:10528000CDBF60912B0270912C0280912D029091E4
:105290002E0220E432E44FE050E00E941D2D5F9387
:1052A0004F933F932F9385E691E09F938F938E01C9
:1052B0000F5F1F4F1F930F930E94802D41E0B80195
:1052C00089EC91E30E94BE1A0FB6F894DEBF0FBEC0
:1052D000CDBF2A960FB6F894DEBF0FBECDBFDF91CB
:1052E000CF911F910F9108950E94601A6FEF81E096
:1052F0000E94871F0E94F6280C94352908950F9369
:1053000080912302643061F5811105C081E08093B2
:10531000230264E10DC0813079F482E0809323029E
:1053200000E02AE045E061E18AE50E943E226FE16B
:105330008AE50E94941A13C0823089F410922302E5
:1053400000E02AE045E061E18AE50E943E222AE091
:1053500045E06CE18AE50E943E2281E001C080E0E8
:105360000F9108950F931F9380912302813021F0B4
:10537000823009F0CFC069C0A62FBB27A7FDB0952A
:1053800020E432E44FE050E00E94CF2C009127024D
:10539000109128022091290230912A02600F711F7A
:1053A000821F931F61302AEC72072AE982072BE3E0
:1053B000920748F460932702709328028093290291
:1053C00090932A0208C0109227021092280210928D
:1053D000290210922A028091270290912802A0911E
:1053E0002902B0912A0281309546AD4CBD4160F052
:1053F00080E095E6ADECBDE1809327029093280212
:10540000A0932902B0932A0280912B0290912C0242
:10541000A0912D02B0912E024091270250912802B6
:105420006091290270912A0284179507A607B70791
:1054300040F48093270290932802A0932902B0930E
:105440002A021F910F910C94F628A62FBB27A7FDC7
:10545000B09520E432E44FE050E00E94CF2C009160
:105460002B0210912C0220912D0230912E02600F00
:10547000711F821F931F60932B0270932C028093E5
:105480002D0290932E020091270210912802209164
:10549000290230912A0201301A4C2A493B4340F03C
:1054A00010922702109228021092290210922A02CA
:1054B00000912702109128022091290230912A029E
:1054C000013015462D4C3D4160F000E015E62DEC15
:1054D0003DE1009327021093280220932902309384
:1054E0002A0200912702109128022091290230916E
:1054F0002A02601771078207930740F400932B027A
:1055000010932C0220932D0230932E021F910F91A5
:105510000C9435291F910F9108958CE890E0909399
:1055200001018093000188E990E090930C01809341
:105530000B0187EA90E0909317018093160182EBAC
:1055400090E090932201809321018FEB90E0909363
:105550002D0180932C0189EC90E090933801809389
:1055600037010E94EE280E940C190E94C8220E9456
:10557000A4190E94482580E190E80E94B02680E0AE
:1055800091E00E94741AE0910901F0910A0180E013
:1055900091E009950E940F2678948FE391E00E9494
:1055A000F126C1E0D0E010E00BE0FF24F3940E946C
:1055B000C6268136910569F4F8940E944C1E28E0B5
:1055C00088E190E00FB6F894A89581BD0FBE21BD8B
:1055D000FFCF0E94FE198823C9F1CC2349F1180F8F
:1055E00014301CF417FD03C003C013E001C010E029
:1055F0001D1761F1C12EDD24C7FCD0940C9DC001A4
:105600000D9D900D112480509F4FDC011996ED9156
:10561000FC911A97309709F009950C9DC0010D9DDA
:10562000900D112480509F4F0E94741AD12F0EC0EC
:105630001003D0011124A050BF4F1596ED91FC919D
:105640001697309719F0682FCD01099588E00E94D0
:105650008E198823B1F01003C001112480509F4F90
:10566000DC011796ED91FC911897309719F060E0E6
:105670000995C82F809125028F25809325020E94CD
:10568000362584E00E948E19882389F01003C0011A
:10569000112480509F4FDC011796ED91FC911897D3
:1056A000309719F061E00995C82F0E940F2682E01B
:1056B0000E948E19882379F01003C00111248050B4
:1056C0009F4FDC011796ED91FC911897309719F0D8
:1056D00062E00995C82F81E00E948E19882379F035
:1056E0001003C001112480509F4FDC011796ED91EB
:1056F000FC911897309719F063E00995C82F80E264
:105700000E948E19882379F01003C0011124805063
:105710009F4FDC011796ED91FC911897309719F087
:1057200064E00995C82F8091240280FF40CF1003C8
:10573000C001112480509F4FDC011396ED91FC9124
:105740001497309711F060E00995809124028E7FC4
:10575000809324022CCF70D088F09F5790F0B92FFF
:105760009927B751A0F0D1F0660F771F881F991FB6
:105770001AF0BA95C9F712C0B13081F077D0B1E014
:10578000089574C0672F782F8827B85F39F0B93F24
:10579000CCF3869577956795B395D9F73EF49095B8
:1057A0008095709561957F4F8F4F9F4F0895E89436
:1057B00009C097FB3EF490958095709561957F4F59
:1057C0008F4F9F4F9923A9F0F92F96E9BB27939507
:1057D000F695879577956795B795F111F8CFFAF417
:1057E000BB0F11F460FF1BC06F5F7F4F8F4F9F4F48
:1057F00016C0882311F096E911C0772321F09EE8A6
:10580000872F762F05C0662371F096E8862F70E00B
:1058100060E02AF09A95660F771F881FDAF7880FE5
:105820009695879597F9089557FD9058440F551F01
:1058300059F05F3F71F04795880F97FB991F61F012
:105840009F3F79F087950895121613061406551F89
:10585000F2CF4695F1DF08C0161617061806991FF5
:10586000F1CF86957105610508940895E894BB27EA
:1058700066277727CB0197F908950BD078C069D0B8
:1058800028F06ED018F0952309F05AC05FC011249B
:10589000EECFCADFA0F3959FD1F3950F50E0551FCF
:1058A000629FF001729FBB27F00DB11D639FAA2775
:1058B000F00DB11DAA1F649F6627B00DA11D661FC4
:1058C000829F2227B00DA11D621F739FB00DA11DE5
:1058D000621F839FA00D611D221F749F3327A00D9F
:1058E000611D231F849F600D211D822F762F6A2F3B
:1058F00011249F5750408AF0E1F088234AF0EE0FC0
:10590000FF1FBB1F661F771F881F91505040A9F7CC
:105910009E3F510570F014C0AACF5F3FECF3983E54
:10592000DCF3869577956795B795F795E7959F5F33
:10593000C1F7FE2B880F911D9695879597F90895CD
:1059400097F99F6780E870E060E008959FEF80EC32
:10595000089500240A9416161706180609060895D5
:1059600000240A9412161306140605060895092E3B
:105970000394000C11F4882352F0BB0F40F4BF2BAA
:1059800011F460FF04C06F5F7F4F8F4F9F4F0895EA
:105990000E945D2DB7FF0895821B930B0895B7FFFA
:1059A0000C94692D0E94692D821B930B0895DB01D5
:1059B0008F939F930E94692DBF91AF91A29F800DFD
:1059C000911DA39F900DB29F900D1124089587FB08
:1059D000082E062687FD819567FD61950E94742D2E
:1059E0000EF4919507FC81950895AA1BBB1B51E10C
:1059F00007C0AA1FBB1FA617B70710F0A61BB70B3F
:105A0000881F991F5A95A9F780959095BC01CD01E3
:105A1000089597FB072E16F4009407D077FD09D060
:105A20000E94F52C07FC05D03EF4909581959F4F80
:105A30000895709561957F4F0895A1E21A2EAA1BD3
:105A4000BB1BFD010DC0AA1FBB1FEE1FFF1FA2172E
:105A5000B307E407F50720F0A21BB30BE40BF50B2B
:105A6000661F771F881F991F1A9469F760957095B4
:105A7000809590959B01AC01BD01CF0108950F93D6
:105A80000F7351F0220F331F441F551F661F771FDE
:105A9000881F991F0A95B1F70F9108950F930F73FF
:105AA00051F09695879577956795579547953795D2
:105AB00027950A95B1F70F910895A29FB001B39F62
:105AC000C001A39F01D0B29F700D811D1124911DB3
:105AD00008950E945D2DA59F900DB49F900DA49FE9
