:100000000C94E1180C9400190C9400190C9400192C
:100010000C9400190C9400190C9400190C940019FC
:100020000C9400190C9400190C9400190C940019EC
:100030000C9400190C9400190C9400190C940E19CE
:100040000C9400190C9400190C945E260C948E26C6
:100050000C9400190C9400190C9400190C940019BC
:100060000C9400190C9400190C9400190C940019AC
:100070000C9400190C9400190C9412270C9444272A
:100080000C9400190C9400190C940019466F7277A7
:1000900061726400526576657273650052656365CE
:1000A0006976656400426F6F746C6F616465722E6F
:1000B0002E000F8A0A0B2D4E0301040403040506CB
:1000C00004040604040102030303040806050506EC
:1000D00005050606030605040807070408050607C4
:1000E00005050A07060603040304060205040404C2
:1000F00004040404010204010704040404030403C7
:100100000404070505042020200000008000C03002
:100110000C03000000007E81817E0000000082FF51
:1001200080000000E291918E0000000042818989E8
:1001300076000000000020302C22FF20000000008C
:100140000000CF85857900000000788E897000005E
:1001500000000181710D030100000000000076899C
:100160008976000000000E91711E0000000048001A
:100170000088200020304800000048484800000067
:1001800044281000000001A11906000000003C42B4
:1001900099959D91520C0000000000000000C030B5
:1001A0001C133CC0000000000000FF9191916E0004
:1001B0000000000078868181430000000000FF817C
:1001C00082824438000000000000FF89898989008C
:1001D00000000000FF090909010000000000788408
:1001E00092915132000000000000FF10101010FF2B
:1001F00000000000000081FF81000000608181FF9D
:100200000101000000000000FF18244281000000EE
:100210000000FF80808000000000C0780738F00FE9
:1002200038C00000000000000000FF020C10204059
:10023000FF000000000000007C82818181413E00BF
:10024000000000000000FF11110E000000003C4201
:100250008181A1C1C27C0000000000002040FF217C
:1002600021528C00000000004086898989710000BD
:1002700000000000010101FF010101000000000079
:1002800000007F8080807F00000000000778807879
:10029000070000000000033CC03C037C80700E019E
:1002A00000000000000000000000814224182442E9
:1002B00081000000000000000106D8300E0100009F
:1002C00000000000C1A199858381000000000000AA
:1002D000FF0101604040021C60800000002001011D
:1002E000FF40406004030304000000000000000021
:1002F0000000404040404040010200007088887883
:10030000800000000000FF888870000000007088F6
:10031000885800000000708888FF0000000070A866
:10032000A8500000000008FE0901000000007088CD
:1003300088F880808060FF1008F000000000FA005C
:1003400000FA80E0FF20708800000000FF00F81035
:1003500008F81008F800000000000000F81008F08D
:10036000000000007088887000000000F888887025
:10037000E0000000708888F8000000E0F80818002D
:10038000000090A8A8480000000008FE0800000037
:10039000788080F80000000038C0C03800000000FD
:1003A00078806078806018000000000000008850AD
:1003B00020508800000000000830C0300800C02035
:1003C000000088C8B8880000000015770A0C2E4D80
:1003D00002030604060606060606060602020606CE
:1003E00006060B07070707060507070206070609A3
:1003F0000708070808070607080C07070603030392
:100400000607030606060606040606020206020A98
:100410000606060604060306060906060580801081
:1004200010807C03100000FEFF0101FFFE00101091
:100430001010000C06FFFF0000101082C361311F76
:100440000E10101010101082830909FFF600101012
:10045000101000605846FFFF400000001010009C84
:100460009F0B09F9F1001010101000FCFE0909FBA8
:10047000F200101010100001C1F13D0F0300101028
:10048000000000EEFF1111FFEE0010101010009E92
:10049000BF2121FF7E0010101000008C8C10108CEA
:1004A0008C50301038286C44C60000000000002832
:1004B0002828282828000000000000C6446C28389E
:1004C000100000000000000203B1B90F0600001088
:1004D000100000F00CF2FB8D8DF9FD0E867C1020D3
:1004E000409090809090904020C0FC7F437FFCC063
:1004F00010100000001010FFFF111111FFEE10107E
:1005000010101010007CFE83010183820000101087
:10051000101000FFFF010183FE7C1010101010006E
:1005200000FFFF11111111101010101010FFFF111A
:10053000111110100000007CFE830111F3F2000085
:100540001010101000FFFF101010FFFF101000001F
:10055000001010FFFF1010C0C00000FFFF001010BF
:10056000101000FFFF181C7EF38110100000001017
:1005700010FFFF00000000101010101010FFFF0F00
:10058000FCC0FC0FFFFF101000001000001010FF57
:10059000FF0E38E0FFFF101000000010107CFE83FB
:1005A000010183FE7C0000101010100000FFFF21ED
:1005B00021213F1E101000000000007CFE8301413D
:1005C00083FE7C0000101010101020FFFF1111316D
:1005D000FFCE0010100000000010108E9F1939315E
:1005E000F3E2001010101010000101FFFF010100E4
:1005F0000010100000FFFF000000FFFF00101010AF
:100600001010000F7EF080F07E0F0100001010101F
:100610000000003FFCC0FC3F073FFCC0FC3F030064
:10062000101010000000101010000083EF7C387CC8
:10063000EF8310100000001010070EF8F80E0701ED
:1006400000001010000000C1E1391D070310101058
:10065000101010FFFF01707040037C80000010013B
:10066000FFFF407070101C07071C10000000000006
:1006700000000000000000004040404040404001B9
:100680000302000000C8E43414FCF800101010103D
:1006900010FFFF8804FCF8101000101000F8FC0494
:1006A000048C88001010101000F8FC0488FFFF0074
:1006B0001010001010F8FC2424BCB800101010100A
:1006C00000FEFF050110100000F8FC0488FCFC206F
:1006D0005050407030FFFF0804FCF810100000106C
:1006E00010FDFD1010FDFD7030FFFF3078EC841020
:1006F0001000001010FFFF1010FCFC0804FCFC08A8
:1007000004FCF810100000101000001010FCFC0891
:1007100004FCF8101000001010F8FC0404FCF800B1
:100720001010101000FCFC8804FCF8707000101011
:1007300000F8FC0488FCFC001010007070FCFC0445
:10074000041010000098BC3464ECC80010101010A5
:1007500000FEFF04001010FCFC0080FCFC001010E8
:100760000010107CF080F07C0C0010101000003C99
:10077000FCC0F81CF8C0FC3C001010000000101079
:10078000008CDC7070DC8C1010000010107CF0808D
:10079000F07C0C40703010000084E4741C0C1010CD
:1007A000101010368A0A1220600002050A090E0B8A
:1007B000020505050A0205020509090909090909D1
:1007C000090909020209090908110B0A0B0B0A0998
:1007D0000C0B02070B080D0B0C0A0C0C0A0A0B0B76
:1007E000110B0C0A040504070A030808070808058A
:1007F0000808020308020C0808080805070408098D
:100800000D0809080602060A0AFEFE373700003EF8
:100810003E003E3E000000000000000000003030BE
:10082000B0F8FE36B0F8FE3606363F0F06363F0FFC
:10083000060600000000000000000000387C66C6CC
:10084000FFC6868C080C1C3830FF31391F0F0000A2
:10085000000000000000007CFE8282FE7CC0F07C74
:100860008E8280800000000020381E07011F3F207C
:10087000203F1F00000000000000000000000000FA
:10088000000080BCFEC6E63E1C0000000E1F393092
:1008900031331E1C1F332000000000000000000048
:1008A00000003E3E00000000C0F03804021F7FE060
:1008B00000000000004080020438F0C00000E07F2B
:1008C0001F804000000004340E34040000000000CB
:1008D000000000000080808080F8F8808080800127
:1008E0000101011F1F0101010100000000000000C3
:1008F0000000000000B070000000000000000303D2
:10090000030303000000000000003030000000007E
:10091000C0F83E303E0F01000000000000F8FC0E61
:1009200006060EFCF8000F1F383030381F0F00008D
:10093000000000000000000030180CFEFE00000067
:10094000000000003F3F0000000000000000000029
:10095000000000181C0E06068EFC7800303C3C3669
:100960003331303000000000000000000000080CAF
:1009700006C6C6FCB800000C1C303030301F0F001B
:100980000000000000000000000080E0701CFEFE7F
:10099000000007070606063F3F06060000000000AD
:1009A00000000000F0FE4E666666C680000C1C303B
:1009B0003030301F0F00000000000000000000F089
:1009C000FC8EC6C6C68C0800071F393030301F0F9A
:1009D0000000000000000000000006060686E67623
:1009E0001E060000003C3F07000000000000000061
:1009F000000000000038FCC6C6C6C6FC38000F1F49
:100A0000303030301F0F00000000000000000000F8
:100A100078FC868686C6FCF8000818313131381F0C
:100A200007000000000000000000003030303000FF
:100A3000003030B070000080C0406060203030185E
:100A400000010103030206060C0000000000000084
:100A500000003030303030303030300303030303D7
:100A60000303030300000000000000000018303002
:100A700020606040C0800C060602030301010000F4
:100A80000000000000000000181C0E0686CE7C3816
:100A900000003637010000000000000000000000E8
:100AA00080E070188CCCE6363676E6F63C1C38F0E2
:100AB000E01F7FE0C08FBF3830103C3F313098DC02
:100AC000CF430000004040C0C0C0C0C0C0C0C04054
:100AD0004000000000C0F83E063EF8C00000303E76
:100AE0000F03030303030F3E30000000000000006B
:100AF00000000000FEFEC6C6C6C6C6C6FC383F3FA4
:100B00003030303030381F0F00000000000000008F
:100B10000000E0F81C0E060606060C1C18030F1C4D
:100B20001830303030181C040000000000000000B5
:100B3000000000FEFE06060606060E1CF8F03F3F0B
:100B40003030303030381C0F03000000000000004F
:100B500000000000FEFEC6C6C6C6C6C6C6063F3FAB
:100B60003030303030303030000000000000000005
:100B70000000FEFEC6C6C6C6C6C6063F3F00000051
:100B800000000000000000000000000000E0F81C71
:100B90000C06068686868C9C90030F1C183030311C
:100BA0003131191F0F00000000000000000000009C
:100BB00000FEFEC0C0C0C0C0C0C0FEFE3F3F00007F
:100BC00000000000003F3F000000000000000000A7
:100BD0000000FEFE3F3F00000000000000FEFE1C83
:100BE0003C3030301F0F00000000000000FEFEC04F
:100BF000E0F0B81C0E0602003F3F010001030F1E8B
:100C00003830200000000000000000000000FEFE60
:100C10000000000000003F3F303030303030000036
:100C2000000000000000FEFE1EFCE0000000E0FCF2
:100C30001EFEFE3F3F00000F3E303E0F00003F3FD4
:100C400000000000000000000000000000FEFE1C8C
:100C500038E0C0800000FEFE3F3F00000001030EB0
:100C60001C3F3F0000000000000000000000E0F812
:100C70001C0C060606060E1CF8E0030F1C1830308C
:100C80003030181C0F0300000000000000000000BE
:100C90000000FEFE8686868686CEFC783F3F0101F8
:100CA0000101010100000000000000000000000040
:100CB000E0F81C0E060606060E1CF8F0030F1C38A2
:100CC0003030343C183C27230000000000000000B6
:100CD00000000000FEFEC6C6C6C6C6C6EE7C3800D2
:100CE0003F3F0000000003071E3C302000000000D2
:100CF0000000000000000000387CCCC6C686868E4E
:100D00001C180C1C3830303131391F0E0000000027
:100D100000000000000006060606FEFE06060606A7
:100D2000000000003F3F0000000000000000000045
:100D300000000000FEFE00000000000000FEFE0FAC
:100D40001F183030303030181F070000000000003E
:100D50000000000000063EF8C0000000C0F83E069B
:100D60000000010F3E303E0F0100000000000000B7
:100D700000000000000006FEF8000000F87E067E7D
:100D8000F8000000F8FE0600000F3F303F0F0000A3
:100D9000000F3F303F0F0000000000000000000087
:100DA0000000000000000000000002061EF8E0F84D
:100DB0001E06020020303C0F0700070F3C302000C9
:100DC0000000000000000000000002061E38F0C015
:100DD000C0F0381E060200000000003F3F00000087
:100DE00000000000000000000000000000000006FD
:100DF000060686E6763E0E0630383E373330303013
:100E0000303000000000000000000000FEFE06067A
:100E1000FFFF0000C0C0C0C0063EF8C000000001D7
:100E20000F3E00000000000606FEFE0000FFFFC0AF
:100E3000C0C0C080F03C063CF08000000000000014
:100E400000000000000000000000000000000000A2
:100E5000000000000000000000000000C0C0C0C092
:100E6000C0C0C0C0C0C002060400000000000040B6
:100E7000603030B0B0F0E01E3F333331193F3F00F7
:100E800000000000000000FEFE60303070E0C03F57
:100E90003F183030381F0F0000000000000000C075
:100EA000E070303070600F1F3830303818000000AC
:100EB00000000000C0E070303060FEFE0F1F3830D0
:100EC00030183F3F0000000000000000C0E070301C
:100ED0003070E0800F1F3B3333331B0B00000000EA
:100EE0000000000030FCFE3636003F3F00000000EE
:100EF000000000C0E070303060F0F08F9F3830307C
:100F000098FFFF40C0C0C0C0C04000FEFE6030304F
:100F100030F0E03F3F000000003F3F0000000000D5
:100F2000000000F6F63F3F000000F6F600FFFFC0AD
:100F3000C040FEFE80C0607030103F3F01030F3C98
:100F400030200000000000000000FEFE3F3F0000D7
:100F5000F0F0603030F0C0603030F0E03F3F000033
:100F6000003F3F0000003F3F000000000000000085
:100F700000000000F0F060303030F0E03F3F000053
:100F800000003F3F0000000000000000C0E07030A3
:100F90003070E0C00F1F383030381F0F00000000E5
:100FA00000000000F0F060303070E0C0FFFF18304B
:100FB00030381F0FC0C0000000000000C0E07030DB
:100FC0003060F0F00F1F38303018FFFF00000000D5
:100FD0000000C0C0F0F06030303F3F000000000073
:100FE000000000E0F0B03030706018393133373E27
:100FF0001C0000000000000030FEFE30003F3F30CB
:1010000000000000F0F000000000F0F01F3F303062
:1010100030183F3F000000000000000030F0C0002A
:101020000000C0F0300001071E381E07010000005C
:101030000000000000000070F0800000E070E000A0
:101040000080F07000031F383F0300033F381F0388
:101050000000000000000000000000000000107010
:10106000E08080E0701020381C07071C382000004A
:1010700000000000000030F0C0000000C0F03000B0
:1010800000038FFC7E0F010000C0C0C040000000C4
:101090000030303030B0F0F070383C3E3733313013
:1010A0003000000000000000000080FCFE06060387
:1010B00007FFFC0000000040C0C0C0FEFEFFFFC0F4
:1010C000C00606FEFC80000000FCFF0703C0C0C095
:1010D00040000080C0C0C08080000000800100008F
:1010E00000010103030301000000000000000000F4
:1010F00000FC0404040404040404FC3F2020202019
:10110000202020203F000000000000000000005CC4
:10111000EE0A1820600002060D0B130E02060608E8
:101120000C020702070B0B0B0B0B0B0B0B0B0B0231
:10113000020B0B0B0B160F0D0F0E0D0C100D0209F1
:101140000E0A0F0D110D110E0E0E0D0F170F100EB2
:101150000407040A0D040B0B0A0B0B070B0A02040D
:101160000A02100A0B0B0B060A070A0B110B0A0ADC
:101170000602060C0CFEFE3F3F03037E7E00007E4F
:101180007E000000000000000000000000C0C0C0A1
:10119000C0F8FEC6C0C0F8FEC6C03030F0FF3F3019
:1011A00030F0FF3F30303000030300000003030045
:1011B0000000000078FC8C8606FF06060C1C106000
:1011C000E0C10103FF030686FC7800010103030F61
:1011D0000303010100F8FC06020206FCF80000C04F
:1011E000F03C0E0600000000000103020283E1F85B
:1011F0003C0F03F8FC06020206FCF80000000002A7
:1012000003010000000000010302020301000000CE
:1012100038FCCE8686CEFC380000000078FCCE0775
:101220000303078EB8F0F0FC8800000101030303FC
:1012300003030101000303017E7E0000000000E0C3
:10124000F81C0602FFFF0000000000071F38604086
:1012500002061CF8E00000000000FFFF4060381F9D
:1012600007000848F83E3EF848080000000000006B
:10127000000000000000000000000000000000F07E
:10128000F000000000000606060606FFFF06060640
:101290000606000000000000000000000000000042
:1012A0000000331F00000000000000181818181874
:1012B00018180000000000000000000000030300F8
:1012C0000000C0F83E0600E0FE1F0300000303001C
:1012D00000000000E0F81C0E0606060E1CF8E03FB9
:1012E000FFC08000000080C0FF3F00010103030336
:1012F000030301000060703018FEFE0000000000D3
:1013000000000000FFFF00000000000000000003DC
:10131000030000000000303C0C06060606060CFC2C
:10132000F00080C06030380C0603010003030303A3
:1013300003030303030303101C0C060606068CFCC0
:10134000780060E080000303030386FC780000015E
:101350000303030303010000000000C0E0781CFE4B
:10136000FE0000383C3F33303030FFFF30300000AB
:1013700000000000000303000000F8FE86C6C6C699
:10138000C686060063E3810000000000C1FF3E0046
:1013900001010303030303010000C0F83C0C86862F
:1013A00086860E1C183FFFC6830101010183FF7C66
:1013B00000000103030303030100000606060606FE
:1013C0000686E6361E06000000C0F83F0700000053
:1013D0000000000003030000000000000078FC8E05
:1013E0000606068EFC780078FC860303030303865A
:1013F000FC780001010303030303010100F0F81C62
:1014000006060606061CF8E0C1C7860C0C0C0C8606
:10141000E3FF1F00010303030303010100006060F9
:101420000000030360600000331F0000008080C0E4
:10143000C0406060300207050D0D081810303060A4
:101440000000000000000000000000C0C0C0C0C0DC
:10145000C0C0C0C0C0C0181818181818181818181C
:101460001800000000000000000000003060604034
:10147000C08080800000006030301018180D0D050D
:101480000702000000000000000000000030381CCF
:101490000E0606060E8CFC7000000000383C0E03A1
:1014A00003010000000000030300000000000080B2
:1014B000E070381C8CCCE6666666C686EEEC1C389E
:1014C00070E08000FEFF01007CFF8300000080C010
:1014D000E0FF1F0080C0F07F1F0000030F1C1839C1
:1014E00031336363616161636363313118180C04E4
:1014F00000000000E0F83E063EF8E00000000000BA
:10150000E0F83F1F18181818181F3FF8E0000303F1
:1015100000000000000000000000000303FEFE06C3
:101520000606060606068CFC7800FFFF030303038D
:10153000030303078FFC780303030303030303037D
:1015400003010100C0F0781C0C0606060606060C16
:101550001C38201F7FE0C08000000000000080C019
:10156000F030000000010103030303030301010045
:1015700000FEFE060606060606060E1C38F0C0FF34
:10158000FF0000000000000080C0E07F1F03030395
:101590000303030303030101000000FEFE06060629
:1015A0000606060606060606FFFF030303030303FB
:1015B00003030303000303030303030303030303FE
:1015C0000303FEFE06060606060606060606FFFFDF
:1015D00003030303030303030300030300000000EA
:1015E000000000000000C0F0781C0C0E0606060685
:1015F000060E0C1C38201F7FF0C080800000000603
:1016000006868686FEFE0000000101010303030337
:10161000030301010000FEFE0000000000000000C6
:1016200000FEFEFFFF030303030303030303FFFFA7
:1016300003030000000000000000000303FEFEFFA3
:10164000FF030300000000000000FEFEE0E0800059
:10165000000080FFFF000103030303030100FEFEFF
:10166000000080C0E070381C0E060200FFFF0E076D
:1016700003070F1E78F0E080000003030000000065
:101680000000000001030302FEFE00000000000055
:101690000000FFFF00000000000000000303030340
:1016A000030303030303FEFE1EFCE0000000000032
:1016B000E0FC1EFEFEFFFF00000F7EF000F07E0F3C
:1016C0000000FFFF0303000000000303030000000D
:1016D000000303FEFE1C38E0C00000000000FEFE18
:1016E000FFFF00000003071E38E0C0FFFF030300F8
:1016F00000000000000000010303C0F0781C0C0E85
:1017000006060606060E0C1C78F0801F7FF0C080CF
:101710008000000000008080C0F07F1F00000001FA
:1017200001030303030303030101000000FEFE069F
:10173000060606060606060CFCF0FFFF0606060671
:101740000606060603030003030000000000000075
:1017500000000000C0F0781C0C0E06060606060EFF
:101760000C1C78F0C01F7FF0C0808000000060601B
:10177000C0C0C0F07F1F000000010101030303038C
:1017800003030103030706FEFE0606060606060619
:10179000068EFCF800FFFF03030303070F3F7BF1F6
:1017A000C10000030300000000000000000103036B
:1017B000020070FC8C8606060606060C1C383030CB
:1017C000F0C18183030303030786CEFC7800000188
:1017D00001030303030303010100000606060606D6
:1017E00006FEFE060606060606000000000000FFD4
:1017F000FF000000000000000000000000030300E4
:101800000000000000FEFE000000000000000000DC
:10181000FEFE3FFFC080000000000080C0FF7F0090
:10182000000103030303030303010000021EFCE0A5
:1018300080000000000080E0FC1E02000000031F8A
:10184000FCE080E0FC1F030000000000000000003E
:10185000030303000000000000067EF88000000083
:1018600000C0F83E063EF8C00000000080F87E068A
:1018700000000FFFF800F0FE1F03000000011FFE34
:10188000F000F8FF0F000000000000030303000059
:10189000000000000000000303030000000000023D
:1018A000061E3CF0E080E0F83C1E0602000000C08E
:1018B000E0F83C1F031F3C70E0C00000020303017E
:1018C000000000000000000103030202061E387041
:1018D000E0C00000C0E0783C1E06020000000000EE
:1018E0000103FFFF030100000000000000000000F2
:1018F00000000303000000000000000006060606CA
:10190000060686C6E6761E0E060080C070381C0EDF
:1019100003010000000000030303030303030303A8
:101920000303030303FEFE0606FFFF00007F7F6044
:1019300060063EF8C00000000000031FFCE000004D
:101940000000000003030606FEFE0000FFFF6060CB
:101950007F7F0080F07C0E0E7CF08000020301008F
:101960000000000103020000000000000000000071
:101970000000000000000000000000000000000067
:101980000000000000000000000060606060606017
:101990006060606060606002060E08000000000089
:1019A00000000080C0C060606060E0C08000E1F1C5
:1019B0009818180C8CCCFFFF0000010303030301EF
:1019C00001010302FEFE80C0606060E0C08000FF95
:1019D000FFC18000000080C1FF3E0303000103033C
:1019E00003030100000080C0E0606060E0C0807F11
:1019F000FFC10000000080C1C10000010303030318
:101A00000301000080C0E0606060C080FEFE3EFF19
:101A1000C18000000080C1FFFF0000010303030339
:101A2000010003030080C0E0606060E0C080007FD0
:101A3000FFCC8C0C0C0C8C8DCF4F000001030303EA
:101A400003030100006060FCFE6666660000FFFFA5
:101A5000000000000003030000000080C0E06060A0
:101A600060C080E0E03EFFC18000000080C1FFFF59
:101A70001838716363636371383F0FFEFE80C06086
:101A80006060E0C080FFFF010000000000FFFF0376
:101A9000030000000000000303E6E6FFFF0303006D
:101AA00000E6E60000FFFF60607F3FFEFE000000F2
:101AB00080C0602000FFFF0C0E1F79F0C000000303
:101AC000030000000000030302FEFEFFFF0303E02B
:101AD000E0C0406060E0C080C0606060E0C080FF47
:101AE000FF0000000000FFFF0000000000FFFF03F8
:101AF000030000000000030300000000000303E0F7
:101B0000E080C0606060E0C080FFFF010000000076
:101B100000FFFF030300000000000003030080C07B
:101B2000E0606060E0C080007FFFC1800000008056
:101B3000C1FF7F0000010303030303010000E0E095
:101B400080C0606060E0C08000FFFFC180000000D6
:101B500080C1FF3E7F7F00010303030301000000FB
:101B600080C0E0606060C080E0E03FFFC1800000B6
:101B70000080C1FFFF0000010303030301007F7F1A
:101B8000E0E0C0606060FFFF0000000003030000B1
:101B9000000080C0E060606060E0C080C3C78E0C61
:101BA0000C1C1C98F9F1000103030303030301005B
:101BB0006060FCFE6060600000FFFF00000000004D
:101BC0000103030303E0E0000000000000E0E0FF89
:101BD000FF8000000080C0FFFF000103030303013A
:101BE00000030360E080000000000080E06000036C
:101BF0000F7CF080F07C0F03000000000001030167
:101C000000000000E0E00000000000C0E0C00000B4
:101C1000000000E0E000073FF880F83E0700073EC4
:101C2000F880F83F070000000001030100000000F9
:101C3000000103010000002060E08000000080C07F
:101C4000E0200000C1E37F1C7EE3C100000203032B
:101C50000000000000030302E0E00000000000803C
:101C6000E06000071FF8E0C0FC3F07000060607004
:101C70003F0F0100000000606060606060E0E060B5
:101C800000C0E0703C0E07030100030303030303DD
:101C9000030303030000FCFE0606183CE7C3000034
:101CA00000003F7F6060FEFEFFFFFFFF0606FEFCB8
:101CB00000000000C3F73C1860607F3F0000000098
:101CC00000000000000000000000060703030306F8
:101CD000060C0C0C0E0600000000000000000000C6
:101CE0000000FC04040404040404040404FCFF00D5
:101CF000000000000000000000FF030202020202D8
:101D000002020202020391A00A1D206000030810D3
:101D10000E17120308080A0F030803080F0F0F0F0E
:101D20000F0F0F0F0F0F03030E0F0E0F1C131114C5
:101D300013100F1412030C120E1512151115131196
:101D40001112131D1313110607060C11050E0E0DAB
:101D50000E0E080E0D03050D03150D0E0E0E080DCB
:101D6000080D0F150E0F0E090209100FFEFEFE0FD3
:101D7000FF0F707370000000FEFEFE0000FEFEFE0E
:101D80000001000000000100000000000000000051
:101D90000000000000000000C0C0C0C0C0F8FEFE8F
:101DA000C6C0C0F8FEFEC6C0C1C1C1F1FFFFCFC1B1
:101DB000C1F1FFFFCFC1C1C101617F7F1F0101617F
:101DC0007F7F1F01010101010000000000000000F1
:101DD0000000000000000000F0F8FC1C0E0EFFFFE9
:101DE0000E1E3C383000010307070E0EFFFF1C3C9F
:101DF00038F8F0C0061E3E3C7070FFFF70783C3F24
:101E00001F0700000000000018180000000000007C
:101E1000F0FCFC0E06060EFCFCF0000000C0F0FC1E
:101E20003E0E0200000000030F0F1C18181C0F07C5
:101E3000C3F0FC3FCFF3F038181838F0F0C00000C2
:101E400000000040707C3F0F0300000F3F3F7060B8
:101E500060703F3F0F000000000000000000000025
:101E6000000000000000000000000000000000F082
:101E7000FCFC1E0E0E1EFCFCF0000000000080E0CA
:101E8000F0703B1F1F1C7EF7E3810080E0E0400004
:101E9000071F3F3C787070707070393F1F0F3F799B
:101EA00070200000000000000000000000000000A2
:101EB00000000000FEFEFE00010000000000000027
:101EC0000000C0F0781C0602F8FFFF0300000000CD
:101ED000073FFFF880000000000000183870C08045
:101EE00002061C78F0C000000000000007FFFFF8A9
:101EF00000000080F8FF3F0780C070381800000025
:101F00001018B0F0FEFEF0B0181000010301000040
:101F100001030100000000000000000000000000BC
:101F20000000000000000000000000000000E0E0F1
:101F3000E0000000000000383838383838FFFFFF74
:101F40003838383838380000000000000F0F0F0014
:101F50000000000000000000000000000000000081
:101F60000000000000000000000070F0F0203818B1
:101F70000000000000000000C0C0C0C0C0C0C0C061
:101F80000101010101010101000000000000000049
:101F900000000000000070707000000000000000F1
:101FA000C0F87E060000C0FC3F030000607E1F03F7
:101FB00000000000000000000000000080F0F87C3D
:101FC0001E0E0E0E0E0E1C7CF8F080FFFFFF0000B0
:101FD00000000000000000FFFFFF010F1F3E7870AF
:101FE00070707070783E1F0F01000000000000004C
:101FF0000000000000000000C0C0E07038FCFEFEE1
:10200000000000000000000100000000FFFFFF00D2
:1020100000000000000000000000007F7F7F000043
:1020200000000000000000000000000000000000B0
:102030000000000060787C1C1E0E0E0E0E1E3CFC84
:10204000F8E000000000000080C0E0F0783C1F07CE
:10205000030060787C7E7773717070707070707040
:102060000000000000000000000000000000000070
:1020700060787C3C1E0E0E0E0E0E1CFCF8F000006C
:1020800000000000000E0E0E0F1F3FF9F0E0061ECC
:102090003E3C787070707070383C1F0F0300000079
:1020A0000000000000000000000000000000000030
:1020B000000080E0F078FCFEFE0000C0E0F0B89E7A
:1020C0008F87818080FFFFFF80800303030303036A
:1020D000030303037F7F7F03030000000000000071
:1020E000000000000000000000F0FEFE0E0E0E0ECC
:1020F0000E0E0E0E0E0E000E0F0F0D060707070731
:10210000070F1EFCF8F0061E3E3C78707070707071
:10211000383C1F0F0300000000000000000000001A
:102120000000000000E0F8F83C1E0E0E0E0E1E3CF3
:102130007C7860FFFFFF381C0C0E0E0E0E1E3CFC60
:10214000F8E0010F1F3C387070707070783C1F0F02
:102150000700000000000000000000000000000078
:102160000E0E0E0E0E0E0E0E8ECEEE7E1E0E00000B
:1021700000000080E0F87E1F030100000000000066
:1021800000787F7F070000000000000000000000D2
:1021900000000000000000000000000000F0F8FC5B
:1021A0001C0E0E0E0E0E1CFCF8F000C0F0F93B1FCA
:1021B0000E0E0E0E0E1F3BF9F0C0070F1F3C78707D
:1021C00070707070783C1F0F070000000000000066
:1021D0000000000000000000E0F0F83C1E0E0E0EB3
:1021E0000E0E1C3CF8F080071F3F3C78707070703A
:1021F00030381CFFFFFF061E3E3C78707070707810
:10220000381F1F0700000000000000000000000051
:1022100000000000808080030303707070000000E5
:1022200080808003030370F0F02038180000000065
:10223000000000008080C0C0C0E0387C7CEEEEC6AC
:10224000C7C78383010101000000000000000101F5
:1022500003030707070E0000000000000000000055
:10226000000000000000000000000000000000006E
:10227000000000C7C7C7C7C7C7C7C7C7C7C7C7C743
:10228000C7C70101010101010101010101010101B2
:10229000010000000000000000000000000000003D
:1022A000E0C0C0C08080000000000000000000010D
:1022B00001018383C7C7C6EEEE7C7C380E07070793
:1022C0000303010100000000000000000000000006
:1022D000000000000000000060787C3C1E0E0E0E26
:1022E0000E0E1E3CFCF8E0000000000000C0F0F8FC
:1022F0007C1E0F07030100000000000073737300D1
:1023000000000000000000000000000000000000CD
:1023100000000000000080C0E0F078383C1C1E8EF9
:102320008E8E8E0E0E0E9C9CBC78F8F0E080000025
:10233000F0FEFF0F0300E0F8FE3F0F070303030763
:10234000FEFFFF1F01000083FFFFFE000F3FFFF8AD
:10235000E080071F3F78707070381C3F7F7F71707E
:1023600038381E8F87C3C0400000000818383878FE
:102370007070F0E0E0E0E0E0E0E0E07070703838CD
:1023800018080000000000000080F0FC7E0E7EFCBB
:10239000E0800000000000000000E0FCFFFFE3E040
:1023A000E0E0E3FFFFFCE0000000607C7F1F030033
:1023B0000000000000000000031F7F7C60000000A0
:1023C000000000000000000000000000000000000D
:1023D000FEFEFE0E0E0E0E0E0E0E0E1E1CFCF8F075
:1023E00000FFFFFF1C1C1C1C1C1C1C1C1E3E7FF342
:1023F000E1C07F7F7F707070707070707070783C1B
:102400003F1F070000000000000000000000000067
:102410000000000000C0F0F8781C1C0E0E0E0E0E1E
:102420000E1E3C7CF8F0C000FFFFFF8100000000A2
:1024300000000000000000000080800000030F1F6B
:102440001E3C3870707070707078383C1F0F070138
:10245000000000000000000000000000000000007C
:1024600000000000FEFEFE0E0E0E0E0E0E0E0E0EF4
:102470001E1C3CF8F0E000FFFFFF00000000000021
:1024800000000000000080FFFFFF7F7F7F70707002
:1024900070707070707038383C1F0F0300000000BF
:1024A000000000000000000000000000000000002C
:1024B000FEFEFE0E0E0E0E0E0E0E0E0E0E0E0E007A
:1024C000FFFFFF1C1C1C1C1C1C1C1C1C1C1C0000DB
:1024D0007F7F7F70707070707070707070707070CF
:1024E00000000000000000000000000000000000EC
:1024F000FEFEFE0E0E0E0E0E0E0E0E0E0E0E0EFF3B
:10250000FFFF1C1C1C1C1C1C1C1C1C1C00007F7FB7
:102510007F0000000000000000000000000000003C
:1025200000000000000000000000000000C0F0F803
:10253000783C1C1E0E0E0E0E0E0E1C3C78F8E08031
:10254000FFFFFF81000000000000007070707070DD
:1025500070F0F0F000030F1F1E3C38787070707040
:1025600070707838381F1F0F000000000000000056
:10257000000000000000000000000000FEFEFE0061
:102580000000000000000000000000FEFEFEFFFF53
:10259000FF1C1C1C1C1C1C1C1C1C1C1C1CFFFFFFEF
:1025A0007F7F7F0000000000000000000000007F2F
:1025B0007F7F00000000000000000000000000001D
:1025C00000000000FEFEFEFFFFFF7F7F7F00000097
:1025D000000000000000000000FEFEFE0000000001
:1025E0000000000000FFFFFF0F1F3F787070707049
:1025F000783F1F0F000000000000000000000000F6
:10260000FEFEFE0000000080C0E0F0783C1E0E06DA
:102610000200FFFFFF783C1E1F3F7FF1E0C000007B
:10262000000000007F7F7F00000000000001030722
:102630000F3E7C70604000000000000000000000C1
:102640000000000000000000FEFEFE000000000090
:10265000000000000000FFFFFF000000000000007D
:10266000000000007F7F7F707070707070707070FD
:10267000707000000000000000000000000000007A
:10268000FEFEFE3EFCF8C000000000000000C0F8A6
:10269000FC3EFEFEFEFFFFFF00010FFFFCE000001E
:1026A00000E0FCFF0F0100FFFFFF7F7F7F000000C5
:1026B00000073F7F787F7F07000000007F7F7F005B
:1026C000000000000000000000000000000000000A
:1026D00000000000FEFEFE3E78F0C000000000009A
:1026E000000000FEFEFEFFFFFF000001030F1E784A
:1026F000F0C0800000FFFFFF7F7F7F000000000030
:10270000000000030F1E7C7F7F7F000000000000A0
:1027100000000000000000000000000000C0F0F811
:10272000783C1C1E0E0E0E0E0E1E1C3C78F0E0C0F7
:1027300000FFFFFF8100000000000000000000001B
:10274000000081FFFFFF00030F1F1E3C38787070F0
:1027500070707078383C1E1F0F03000000000000EE
:102760000000000000000000000000000000000069
:10277000FEFEFE0E0E0E0E0E0E0E0E0E1E3CFCF893
:10278000E0FFFFFF3838383838383838383C1E1FFB
:102790000F037F7F7F0000000000000000000000AA
:1027A0000000000000000000000000000000000029
:1027B0000000000000C0F0F8783C1C0E0E0E0E0E5B
:1027C0000E1C3C78F8F0C00000FFFFFF8100000005
:1027D00000000000000000000081FFFF7F000003F8
:1027E0000F1F1E3C387070707276763C3C3E7F77CF
:1027F000E3C04000000000000000000000000000F6
:102800000000000000000000FEFEFE0E0E0E0E0E88
:102810000E0E0E0E0E1E1CFCF8E000FFFFFF1C1C2F
:102820001C1C1C1C3CFCFCDC9E0F0F0701007F7F66
:102830007F000000000000000001030F1F7E787081
:102840004000000000000000000000000000000048
:102850000000000000E0F8FC1C1E0E0E0E0E0E1E06
:102860003C7C786000808183070E0E0C1C1C1C3899
:10287000383870F0E0C0030F1F3E3C787070707005
:102880007070383C1F1F07000000000000000000AF
:1028900000000000000000000E0E0E0E0E0E0EFED8
:1028A000FEFE0E0E0E0E0E0E0E00000000000000CA
:1028B000FFFFFF000000000000000000000000001B
:1028C000007F7F7F0000000000000000000000008B
:1028D000000000000000000000000000FEFEFE00FE
:1028E0000000000000000000000000FEFEFEFFFFF0
:1028F000FF000000000000000000000000FFFFFFDC
:10290000030F1F3E387870707070707078383E1FFB
:102910000F030000000000000000000000000000A5
:1029200000000000063EFEFCE00000000000000089
:102930000000E0FCFE3E060000010F7FFFF8C00033
:102940000000C0F8FF7F0F0100000000000000033E
:102950001F7F7E707E7F1F030000000000000000CC
:102960000000000000000000000000000000000067
:10297000067EFEF880000000000000F0FEFE0EFE65
:10298000FEF000000000000080F8FE7E0600000F50
:10299000FFFFF8000000F0FFFF0F0000000FFFFF37
:1029A000F0000000F8FFFF0F0000000000000F7FA4
:1029B0007F707F7F0F000000000000000F7F7F709E
:1029C0007F7F0F00000000000000000000000000FA
:1029D00000000000000000000000000000000000F7
:1029E000000000000002061E3EFCF0E0800080E0D7
:1029F000F0FC3E1E060200000000000080E1F7FF30
:102A00003EFFF7E18000000000004060787C3F0F4F
:102A1000070100000001070F3F7C786040000000C4
:102A200000000000000000000000000000000000A6
:102A300002061E7CF8F0C08000000080E0F0FC7E02
:102A40001E0602000000000003071FFEF8FE1F071D
:102A500003000000000000000000000000007F7F75
:102A60007F000000000000000000000000000000E7
:102A7000000000000000000000000000000E0E0E2C
:102A80000E0E0E0E0E0ECEEEFE7E3E1E000000005E
:102A900080C0E0F07C3E0F07030100000000787C5E
:102AA0007E7F77737070707070707070707070006F
:102AB0000000000000000000000000000000000016
:102AC000FEFEFE0E0E0EFFFFFF000000FFFFFF00E8
:102AD0000000F8F8F8E0E0E0067EF8C00000000032
:102AE00000033FFCC00000000000031F7E00000048
:102AF000000000000E0E0EFEFEFE000000FFFFFFB5
:102B0000000000FFFFFFE0E0E0F8F8F8000080E0E0
:102B1000FC3E3EFCE0800000101E1F0F0100000183
:102B20000F1F1E1000000000000000000000000049
:102B30000000000000000000000000000000000095
:102B40000000000000000000000000000000000085
:102B50000000000000000000000000000000000075
:102B6000000000000000000000000000000000E085
:102B7000E0E0E0E0E0E0E0E0E0E0E0E0E0E0E0E055
:102B800002060E1C10000000000000000000000003
:102B90000000000000000000808080808080000035
:102BA00000000C8E8FC7C3C3C3636367FFFFFC00C5
:102BB0001E3F7F7970707070381C3F7F7F4000002F
:102BC000000000000000000000000000FEFEFE000B
:102BD00000808080808000000000FFFFFF0E070360
:102BE000030303070FFFFCF07F7F7F1C38707070BA
:102BF00070783C1F0F030000000000000000000080
:102C000000000000000000008080808080800000C4
:102C100000F0FEFF0F0703030303070F0E0C071F4F
:102C20003F3C78707070703C3E1E06000000000053
:102C30000000000000000000000000008080808094
:102C4000800000FEFEFEF0FCFF0F070303030307F6
:102C50000EFFFFFF030F1F3C7870707070381C7FF1
:102C60007F7F000000000000000000000000000066
:102C70000000000000808080800000000000F0FC68
:102C8000FECFC7C3C3C3C3C7CFFEFCF0030F1F3CB7
:102C9000387070707070383C1C0400000000000038
:102CA00000000000000000008080F8FCFE8E8E8E88
:102CB0000303FFFFFF03030300007F7F7F0000008B
:102CC0000000000000000000000000008080808004
:102CD000800000808080F0FCFF0F070303030307E0
:102CE0000FFFFFFF030F3F3C7870707070383CFFA0
:102CF000FFFF187878F0E0E0E0E0E0F0787838085E
:102D0000FEFEFE00008080808080000000FFFFFF4C
:102D10000E070303030307FFFFFC7F7F7F00000014
:102D2000000000007F7F7F00000000000000000026
:102D3000000000008E8E8EFFFFFF7F7F7F0000006F
:102D400000008E8E8E0000FFFFFF0000FFFFFFE0FF
:102D5000E0F87838FEFEFE00000000000080808071
:102D600080FFFFFFE070F8FCCE07070301007F7FC4
:102D70007F00000003071F7C786040000000000017
:102D80000000000000000000FEFEFEFFFFFF7F7F4E
:102D90007F00000080808000008080808000000034
:102DA000000080808080800000FFFFFF0E0703038B
:102DB0000307FFFFFC0E0703030307FFFFFE7F7FF0
:102DC0007F0000000000007F7F7F00000000000007
:102DD0007F7F7F0000000000000000000000000076
:102DE00000000000000000008080800000808080E3
:102DF0008080000000FFFFFF0E070303030307FFAF
:102E0000FFFC7F7F7F000000000000007F7F7F00CD
:102E100000000000000000000000000000000000B2
:102E200000808080800000000000F0FCFE0F07039F
:102E3000030303070FFEFCF0030F1F3C3870707094
:102E400070383C1F0F03000000000000000000006D
:102E50000000000080808000008080808080000072
:102E60000000FFFFFF0E0703030303070FFFFCF043
:102E7000FFFFFF1C3870707070783C1F0F03F8F86C
:102E8000F80000000000000000000000000000004A
:102E900080808080000000808080F8FEFF0F0703A4
:102EA000030303070EFFFFFF030F1F3C78707070D2
:102EB00070381CFFFFFF0000000000000000000051
:102EC00000F8F8F88080800080808080FFFFFF0E8F
:102ED000030303017F7F7F0000000000000000006B
:102EE00000000000000000808080808080000000E2
:102EF000001E3F3F737361E1E3C3C7C784000C1C2E
:102F00003C787070707070393F1F0F000000000037
:102F100000000000000000008080F8FCFC80808041
:102F20000303FFFFFF03030300003F7F7F70707008
:102F30000000000000000000808080000000000011
:102F40000000808080FFFFFF00000000000000FF05
:102F5000FFFF0F3F3F7870707030380C7F7F7F002D
:102F600000000000000000000000000080808000E1
:102F7000000000000000000080808000071FFFF8B4
:102F8000C0000000C0F8FF3F070000000000071F5E
:102F90007E707E1F0700000000000000000000009F
:102FA00000000000000000008080800000000000A1
:102FB00000808080000000000000808080031F7F70
:102FC000FCE00000C0FE7F033FFEC00000E0FC7F8D
:102FD0001F03000000031F7F787F07000000077FAA
:102FE000787F1F03000000000000000000000000C8
:102FF0000000000000000000000000008080800051
:10300000000000000000008080800001070F3EF8F3
:10301000F0F0F83E0F0701004060783C1F07030303
:10302000071F3C7860400000000000000000000026
:103030000000000080808000000000000000000010
:1030400080808000071FFFF8E0000000C0F8FF3F0D
:10305000070000000000071FFFF8FF3F0700000007
:10306000000000E0E0E0F878380000000000000018
:1030700000808080808080808080808080800003CD
:10308000030383C3E3F3737B3F1F0F07787C7E7FCB
:1030900077737170707070707070000000000000C5
:1030A0000000000000000000000000F8FCFE1E0E02
:1030B0000EE0E0B0BF1F0F000000000003FFFFFEA6
:1030C0000000000000003878F8E0E0E0FEFEFFFFBE
:1030D000FFFFF8F80E0E0EFEFCF8000000000000E6
:1030E0000F1FBFB0E0E0000000FEFFFF030000E0A4
:1030F000E0F0F87838000000000000000000000058
:10310000000000000000000070381C1C1C1C3C3833
:1031100070F0E0E0E0E07038000000000000000027
:10312000000000000000000000000000000000009F
:103130000000000000000000F0101010101010102F
:10314000101010101010F0FF000000000000000030
:103150000000000000FF7F404040404040404040B1
:10316000404040407F0000000000000000000000E0
:1031700000000000465F5374617274205B4D487A12
:103180005D00465F53746F70205B4D487A5D00535D
:10319000696E676C6520546F6E6500537765657066
:1031A0002073657474696E6773005265666C65633D
:1031B00074696F6E005472616E736D697373696FB9
:1031C0006E0011241FBECFEFD0E1DEBFCDBF11E0F6
:1031D000A0E0B1E0EEE8F1E600E00BBF02C007902E
:1031E0000D92AA36B107D9F712E0AAE6B1E001C004
:1031F0001D92AD33B107E1F70E94DF2B0C94C5306F
:103200000C9400008FE28BBB8BB3806C8BBB88E08F
:103210008093610080936200A29A08951F920F929A
:103220000FB60F9211240BB60F922F933F934F932B
:103230005F936F937F938F939F93AF93BF93EF931E
:10324000FF93F8940E94AE198091000190910101C2
:1032500001979093010180930001009749F40E9427
:10326000F32A88EE93E0909301018093000108C057
:103270006AE070E00E94552D892B11F40E945419C8
:103280007894FF91EF91BF91AF919F918F917F9132
:103290006F915F914F913F912F910F900BBE0F90C7
:1032A0000FBE0F901F90189530916C0129B389B310
:1032B00099B384702870822B9372892B8095832711
:1032C00090916D019823909590936D0120916E01DE
:1032D0002823292720936E018923822390916C0152
:1032E000982790936C0190916B0120916C01282399
:1032F000292B20936B0180916C0181E380936F01F6
:103300000895F89490916B01892390916B0198270F
:1033100090936B0178940895F89490916A018923B1
:1033200090916A01982790936A0178940895CF99B3
:1033300002C080E001C083E0CE9B02C091E08927FB
:103340008093700110927201109271018AE083BF24
:1033500089EF81BF87B7826087BF0895809173012D
:1033600090917401009729F00197909374018093D4
:10337000730149B3441F4427441FCE9B02C083E01E
:10338000482780910201542F581B50FF29C02091DB
:1033900071013091720180917301909174018B3EA3
:1033A000910528F44496909374018093730140939F
:1033B0000201809173019091740146E09695879582
:1033C0004A95E1F751FF04C0820F931F019604C094
:1033D00080959095820F931F909372018093710155
:1033E0000895F89480917101909172019C0123706D
:1033F00033273093720120937101789495958795C6
:1034000095958795089587FF06C09DE29093750175
:10341000819541E001C040E0242F30E08A3084F4FF
:10342000662331F0F901EB58FE4F90E390834F5F34
:10343000A42FB0E0AB58BE4F805D8C934F5F2BC084
:10344000F901EB58FE4F843674F46AE00E94472D70
:10345000805D8083A42FAF5FB0E0AB58BE4F905D1E
:103460009C934E5F18C091E3908364E60E94472DC1
:10347000892FE42FEF5FF0E0EB58FE4F6AE00E94E7
:10348000472D805D8083A42FAE5FB0E0AB58BE4F68
:10349000905D9C934D5FE42FF0E0EB58FE4F10825F
:1034A00085E791E008950F9300E02FE24FE760E198
:1034B00080E00E9443220F9108950F9300E020E1E5
:1034C0004FE760E080E00E9443220F9108950F9340
:1034D000CF93DF93EC010E945D1A0FEF20E04FE7DE
:1034E0006DE080E00E94432263E082E00E941D20A4
:1034F0006FEF82E00E94881F888199810E94E021FD
:103500006FEF81E0DF91CF910F910C94881F0F93A3
:103510001F93CF93DF93D82FC62F0FEF20E045E006
:103520000E9443221D2F1D5F6C2F62504FEF812F91
:103530000E942022DC5F6C2F61504FEF8D2F0E9484
:1035400020226C2F6E5F4FEF812F0E9420226C2F64
:103550006F5F4FEF8D2FDF91CF911F910F910C94E3
:103560002022FF920F931F93CF93DF938C01EB01E7
:103570008BE0489FF02C112481E1F80E6F2D82E042
:103580000E941D20C8010E94E02100E02AE04BE1DA
:103590006F2D84E60E9443226F2D84E60E941D2039
:1035A000CE01DF91CF911F910F91FF900C940122DA
:1035B000EF92FF920F931F93CF93DF938C01EB0158
:1035C000E22E8BE0489FF02C112481E1F80E6F2D44
:1035D00082E00E941D20C8010E94E02100E02AE054
:1035E0004BE16F2D8E2D0E9443226F2D8E2D0E9458
:1035F0001D20CE01DF91CF911F910F91FF90EF9091
:103600000C9401220F931F93CF93DF93EC018BE077
:10361000689F102D11241F5E00E02AE04FE7612F04
:1036200080E00E9443220FC0AC2FBD2FFD0101900E
:103630000020E9F73197EA1BFB0BCE018E0F911D9D
:10364000FC0131971082CE010E94CA1F813891057A
:1036500058F720E830E0281B390B36952795612F65
:10366000822F0E941D20CE01DF91CF911F910F91DB
:103670000C94012280E896E9A8E9B0E08093320238
:1036800090933302A0933402B093350288E0809384
:10369000360208950F931F9380916200877F809375
:1036A000620048E150E000E010E098011FB8779B0D
:1036B000FECF8FB190E0A0E0B0E0042E04C0880FF0
:1036C000991FAA1FBB1F0A94D2F7082B192B2A2B6C
:1036D0003B2B48505109483F8FEF580739F78091ED
:1036E0006200886080936200B801C9011F910F9148
:1036F0000895EF92FF920F931F93CF93DF93CDB76F
:10370000DEB72F970FB6F894DEBF0FBECDBF88236C
:1037100031F08FEF9FEF909304018093030181E0DC
:103720000E94F025192FE82EF92E80910301909127
:103730000401E816F90679F100E02AE04EE160E1C3
:1037400082E30E9443221F93EF9285E491E09F93CE
:103750008F931F928FE08F938E010F5F1F4F1F93E8
:103760000F930E94E02D6FEF81E00E94881F61E1BE
:1037700080E00E941D208CE890E00E94E02161E141
:1037800082E30E941D20C8010E9401220FB6F89416
:10379000DEBF0FBECDBFF0920401E09203012F9671
:1037A0000FB6F894DEBF0FBECDBFDF91CF911F9152
:1037B0000F91FF90EF900895EF92FF920F931F9358
:1037C000CF93DF93CDB7DEB72F970FB6F894DEBF58
:1037D0000FBECDBF882331F08FEF9FEF909306018E
:1037E0008093050180E00E94F025192FE82EF92E24
:1037F0008091050190910601E816F90679F100E043
:103800002AE04EE16AE182E30E9443221F93EF9295
:1038100085E491E09F938F931F928FE08F938E01A9
:103820000F5F1F4F1F930F930E94E02D6FEF81E0FA
:103830000E94881F6BE180E00E941D2084E990E0D7
:103840000E94E0216BE182E30E941D20C8010E94DA
:1038500001220FB6F894DEBF0FBECDBFF092060175
:10386000E09205012F960FB6F894DEBF0FBECDBFD4
:10387000DF91CF911F910F91FF90EF900895EF92FC
:10388000FF920F931F93CF93DF93CDB7DEB72F97A0
:103890000FB6F894DEBF0FBECDBF882331F08FEF97
:1038A0009FEF909308018093070182E00E94F0252A
:1038B000192FE82EF92E8091070190910801E81642
:1038C000F90679F100E02AE04EE164E282E30E9429
:1038D00043221F93EF9285E491E09F938F931F9271
:1038E0008FE08F938E010F5F1F4F1F930F930E94E6
:1038F000E02D6FEF81E00E94881F65E280E00E946A
:103900001D208CE990E00E94E02165E282E30E94A4
:103910001D20C8010E9401220FB6F894DEBF0FBE21
:10392000CDBFF0920801E09207012F960FB6F894F0
:10393000DEBF0FBECDBFDF91CF911F910F91FF90E2
:10394000EF900895EF92FF920F93CF93DF93CDB74F
:10395000DEB72F970FB6F894DEBF0FBECDBF9091A4
:10396000360220910901921771F11F929F9388E40A
:1039700091E09F938F931F928FE08F93EE24E394B7
:10398000F12CEC0EFD1EFF92EF920E94E02D6FEFE6
:1039900083E00E94881F00E024E142E26CE18DE5B3
:1039A0000E9443226CE185E50E941D20C7010E9410
:1039B000012280913602809309010FB6F894DEBF90
:1039C0000FBECDBF0CC0882351F000E024E145E1DB
:1039D0006CE18AE60E94432280E1809309012F96E0
:1039E0000FB6F894DEBF0FBECDBFDF91CF910F9120
:1039F000FF90EF900895EF92FF920F931F93CF9354
:103A0000DF93CDB7DEB72F970FB6F894DEBF0FBEAA
:103A1000CDBF482F60913202709133028091340201
:103A20009091350200910A0110910B0120910C0137
:103A300030910D01601771078207930709F442C0A6
:103A400020E432E44FE050E00E947D2D5F934F93DD
:103A50003F932F9381E591E09F938F931F928FE087
:103A60008F93EE24E394F12CEC0EFD1EFF92EF9267
:103A70000E94E02D6FEF83E00E94881F00E024E1A8
:103A800041E260E38CE00E94432260E38CE00E940C
:103A90001D20C7010E9401228091320290913302C1
:103AA000A0913402B091350280930A0190930B01EA
:103AB000A0930C01B0930D010FB6F894DEBF0FBEBA
:103AC000CDBF15C0442399F000E024E141E260E35A
:103AD00089E10E94432281E095E6ADECBDE180934F
:103AE0000A0190930B01A0930C01B0930D012F9646
:103AF0000FB6F894DEBF0FBECDBFDF91CF911F91FF
:103B00000F91FF90EF900895CF92DF92EF92FF9286
:103B10000F93CF93DF93CDB7DEB72F970FB6F894FF
:103B2000DEBF0FBECDBFC0903202D0903302E09016
:103B30003402F090350240910E0150910F016091D6
:103B4000100170911101C416D506E606F70609F4B6
:103B500058C0C701B60120E432E44FE050E00E94B3
:103B60007D2D60E472E48FE090E00E94372DA70184
:103B70009601261B370B480B590BCA01B90128EED9
:103B800033E040E050E00E947D2D5F934F933F93E0
:103B90002F938BE591E09F938F931F928FE08F93EC
:103BA000EE24E394F12CEC0EFD1EFF92EF920E94A6
:103BB000E02D6FEF83E00E94881F00E024E142E4E3
:103BC00060E38CE30E94432260E38CE30E941D20AB
:103BD000C7010E9401228091320290913302A0918C
:103BE0003402B091350280930E0190930F01A0939F
:103BF0001001B09311010FB6F894DEBF0FBECDBF18
:103C000015C0882399F000E024E142E460E38CE3EE
:103C10000E94432281E095E6ADECBDE180930E0168
:103C200090930F01A0931001B09311012F960FB63E
:103C3000F894DEBF0FBECDBFDF91CF910F91FF9003
:103C4000EF90DF90CF9008950E94531A81E00E9478
:103C5000A21C80E00E94A21C81E00E94FB1C80E06C
:103C60000E94FB1C81E00E94841D80E00E94841D54
:103C700081E00E94791B81E00E94DC1B81E00E94B0
:103C80003F1C409132025091330260913402709196
:103C900035028AE090E00C947A250E94531A6FEF67
:103CA00083E00E94881F6EE28EE00E941D2085EA5C
:103CB00090E00C94E02180E00E94791B80E00E945B
:103CC000DC1B80E00E943F1C80917F01823059F014
:103CD0008330A1F08130C9F490918001911180E08E
:103CE0000E94FB1C15C080E00E94FB1C81E09091AB
:103CF0008001911180E00E94841D0AC080E00E9432
:103D0000841D81E090918001911180E00E94A21CAD
:103D1000809180018F5F8A3019F08093800108952F
:103D2000109280010895109280016430C9F41092BD
:103D3000120180917F01811102C081E003C08130B6
:103D400021F482E080937F010BC0823011F483E084
:103D5000F9CF833029F410927F0181E08093120122
:103D60008091120108950F931F9380917F018230FB
:103D700009F471C0833021F0813009F0C3C012C052
:103D800080913602860F803108F401C08FE0809365
:103D90003602809136020E94E12580E01F910F914A
:103DA0000C94A21CA62FBB27A7FDB09520E432E4FB
:103DB0004FE050E00E942F2D00913202109133020B
:103DC0002091340230913502600F711F821F931FC2
:103DD00061302AEC72072AE982072BE3920748F444
:103DE00060933202709333028093340290933502D1
:103DF00008C01092320210923302109234021092D4
:103E000035028091320290913302A0913402B09138
:103E1000350281309546AD4CBD4160F080E095E6BD
:103E2000ADECBDE18093320290933302A093340253
:103E3000B0933502409132025091330260913402C6
:103E4000709135028AE090E00E947A2580E01F910F
:103E50000F910C94FB1CA62FBB27A7FDB09528EE55
:103E600033E00E94282D00913202109133022091FC
:103E7000340230913502600F711F821F931F613031
:103E80002AEC72072AE982072BE3920748F4609331
:103E9000320270933302809334029093350208C04B
:103EA00010923202109233021092340210923502B4
:103EB0008091320290913302A0913402B091350288
:103EC00081309546AD4CBD4160F080E095E6ADECAB
:103ED000BDE18093320290933302A0933402B093F9
:103EE0003502409132025091330260913402709158
:103EF00035028AE090E00E947A2580E01F910F91C0
:103F00000C94841D1F910F910895FC0184910895D4
:103F100060938101813019F482EB90E013C082300C
:103F200019F48AEC93E00EC0833019F483EA97E029
:103F300009C0843019F48FE091E104C0853031F478
:103F400086E09DE190938301809382010895209102
:103F5000820130918301F90134969491F9013596EB
:103F60004491803299F0891798F0682F70E050E002
:103F7000490F511D641775075CF4891BE82FF0E0A9
:103F80003696E20FF31F84918F5F089586E00895BF
:103F900080E008950F931F93CF93DF93EC0100E02F
:103FA00010E004C00E94A71F080F111D8991811104
:103FB000F9CFC801DF91CF911F910F9108950F9311
:103FC0001F93CF93DF938C01C0E0D0E008C00F5F58
:103FD0001F4FFC0184910E94A71FC80FD11DC8016B
:103FE000F80124912111F3CFCE01DF91CF911F91E0
:103FF0000F91089585E08A95F1F70000AD9A0000D1
:10400000000000000000000000000000AD9880E209
:104010008A95F1F70895611103C0A998A89A04C080
:10402000613011F4A898A99AAC98AB9882BB8FEF35
:1040300081BB0E94FA1F12BA0895CF9387FD80E0DA
:10404000603408F06FE38093840160938501669586
:104050006695669560938601803418F0805461E01F
:1040600001C060E080640E940B20C0918601C86B93
:1040700060E08C2F0E940B2061E08C2FCF910C947C
:104080000B201F93CF93DF931F92CDB7DEB711BAEA
:1040900090918401903418F4A998A89A02C0A89825
:1040A000A99A90918401903431F4882321F061E041
:1040B00080E40E940B20AC9AAB9AAD9A00000000FD
:1040C00000000000000010B3AD98198203C0998170
:1040D0009F5F998389818830D0F38FEF81BB609196
:1040E0008501809184010E941D20812F0F90DF9116
:1040F000CF911F91089581E00E94412080E00C94AF
:104100004120CF92DF92EF92FF920F931F93CF93B4
:10411000DF931F92CDB7DEB7C82E8091840187FD53
:104120006AC0803418F4A998A89A02C0A898A99ADD
:1041300080918401803419F461E00E940B20AC9AD4
:10414000AB988FEF81BB90918501977009F44AC0BD
:10415000F5B299830E947B209981F3FE02C0AB9A4D
:1041600001C0AB98F4FE02C0AC9A01C0AC98F0FE5E
:1041700002C0A89A01C0A898F1FE02C0A99A01C085
:10418000A998EE24EA94E1BAD12C092F10E0960107
:1041900001C0220F9A95EAF7282B22BB0E94FA1F32
:1041A00060918501685F809184010E941D200E94BA
:1041B0007B20F5BAE1BA28E030E0201B310BA601E4
:1041C00002C0559547952A95E2F7842B82BB0E9441
:1041D000FA1F609185016850809184018F5F0E9471
:1041E0001D2008C0C2BA0E94FA1F809184018F5F0F
:1041F0008093840112BA0F90DF91CF911F910F919C
:10420000FF90EF90DF90CF9008952F923F924F92C2
:104210005F926F927F928F929F92AF92BF92CF9256
:10422000DF92EF92FF920F931F93CF93DF9300D013
:1042300000D01F92CDB7DEB720918201309183016B
:10424000F9013396C490F90134969491F9013596A9
:10425000A49120908401409185014983803221F40A
:10426000422D4A5F40938401891708F48EC0682F5D
:1042700070E04A2F50E0490F511D641775070CF08C
:1042800084C0891BB9016A5F7F4FFB0140E050E0A9
:1042900004C09491490F511D31969E2F961B98177B
:1042A000C0F3D12C8601095F1F4F93E01595079548
:1042B0009A95E1F7409FB001419F700D509F700D9E
:1042C00011244A2F50E04A5F5F4F460F571F5D830E
:1042D0004C83E82FF0E03696E20FF31F549028E06D
:1042E000E22EF12C412C312C460143C0A701481984
:1042F00059095B834A83612C712CAC80BD80A40C6E
:10430000B11C21C0C501860D971DE0918201F0917D
:104310008301E80FF91F8491CE14DF044CF4E82FD9
:10432000F0E00A8002C0F595E7950A94E2F78E2F37
:10433000909181019F3F09F401C080950E948120E6
:104340005FEF651A750A6514E8F2809181018F3F6D
:1043500011F480E001C08FEF0E94812060918501FF
:10436000685F822D0E941D203394450C88E0E80E82
:10437000F11C301608F4BACF822D8F5F6981850D4C
:104380000E941D2020E030E002C021E030E0C901A1
:104390000F900F900F900F900F90DF91CF911F9182
:1043A0000F91FF90EF90DF90CF90BF90AF909F90D4
:1043B0008F907F906F905F904F903F902F900895D7
:1043C0001F93CF93DF93EC011091840112C08A30C8
:1043D00069F4E0918201F0918301339664918091B8
:1043E0008501680F812F0E941D2002C00E940521B7
:1043F0002196FE0184918111EACFDF91CF911F9127
:1044000008951F93CF93DF9310918401EC0111C0A5
:104410008A3069F4E0918201F091830133966491CE
:1044200080918501680F812F0E941D2002C00E948B
:10443000052189918111ECCFDF91CF911F910895D2
:104440001F93CF93DF931F92CDB7DEB7162F687FF0
:1044500049830E941D200E947B201770498121E022
:1044600030E0012E01C0220F0A94EAF74F3F11F409
:10447000282B02C020952823822F0F90DF91CF9107
:104480001F910C9481209F92AF92BF92CF92DF92A6
:10449000EF92FF920F931F93CF93DF93D82E142F99
:1044A000C22EC394262F2770A62EA21ACC2DD0E0A0
:1044B000E8E0F0E0CF01821B9109C817D90764F446
:1044C000CF018C1B9D0BEFEFF0E002C0F595E79557
:1044D0008A95E2F7BC2C04C038E0B32EB21AEFEF95
:1044E000EE2E01C0EE0C2A95EAF79E2C6A2D8D2D3A
:1044F0000E941D20F12CE0940E947B200F3F11F4BC
:10450000892901C08E210E948120F3941F15A0F7F4
:10451000FA2CBA180DC088E0F80E6F2D8D2D0E9470
:104520001D20E12C802F0E948120E3941E15D0F7DE
:104530002B2D2F0DE22FF0E0CF0107968C179D0752
:1045400054F32C15F0F4CE1BDF0B2FEF30E001C03D
:10455000220FCA95EAF7D22FD0956F2D685F8D2D67
:104560000E941D20C0E0FD2EF0940E947B200F3F92
:1045700011F48D2B01C08F210E948120CF5F1C1769
:10458000A0F7DF91CF911F910F91FF90EF90DF90F7
:10459000CF90BF90AF909F9008950F931092840199
:1045A00010928501109286018FEF8093810182EB3A
:1045B00090E09093830180938201AC9A84B38B63E3
:1045C00084BBAA98A29A85E38A95F1F70000AA9A7B
:1045D0008FE39CE90197F1F700C0000060E08FE3F2
:1045E0000E940B2061E08FE30E940B2060E080ECD2
:1045F0000E940B2061E080EC0E940B2000E02FE382
:104600004FE760E080E00E94432260E080E00F918D
:104610000C941D202F923F924F925F926F927F9247
:104620008F929F92AF92BF92CF92DF92EF92FF92C2
:104630000F931F93CF93DF93CDB7DEB72B970FB6B2
:10464000F894DEBF0FBECDBF482E362E942F222EFB
:10465000C02ED12C222733272C193D09220F331FBE
:104660002D5F3F4F3B872A87342F380F3983301B0C
:104670003A83132F66E0862E912CA12CB12C702E3C
:10468000730C602E680E522D530D5B83501B5C83A0
:10469000F32CF81AF20CF41A572D5C19362D3A192E
:1046A0004E2D652F832FA8863F835D8399870E94B7
:1046B00020222885772D721B262D2C194E2D672F31
:1046C000822F28877E830E9420224E2D5D81652FB8
:1046D000812F0E9420225A815C0D4E2D7E81672FF2
:1046E000852F5D830E9420227C817C0D4E2D672FBB
:1046F000812F7E830E9420225F2C510E4E2D652D2E
:104700005D81852F0E9420224E2D7E81672F3F8163
:10471000832F0E9420224E2D652D2885822F0E94F6
:10472000202299852A853B8537FF05C0280D391D34
:104730003B872A8712C095012C193D09220F331F90
:10474000220F331F265F3F4F4A855B85420F531F61
:104750005B874A8751E0C51AD1088FEFA81AB80ABB
:104760001F5FE4E08E0E911CCA14DB040CF094CFA2
:10477000102F1195110FF12EF90E0E2D20E04F2D57
:10478000632D862D0E94432220E04F2D6B81862DC4
:104790000E944322210E222D40E0672D842D0E948D
:1047A0004322222D40E0672D89810E9443222B96CF
:1047B0000FB6F894DEBF0FBECDBFDF91CF911F9132
:1047C0000F91FF90EF90DF90CF90BF90AF909F90B0
:1047D0008F907F906F905F904F903F902F900895B3
:1047E000EF92FF920F931F93CF93DF93C82FD62F93
:1047F000E42EF22E20E00E9443226F2D6D0F20E068
:104800004E2D8C2F0E9443222F2D40E06D2F8C2F98
:104810000E9443222F2D40E06D2F8E2D8C0F0E9481
:104820004322DF91CF911F910F91FF90EF90089558
:104830002F923F924F925F926F927F928F929F92B0
:10484000AF92BF92CF92DF92EF92FF920F931F939E
:10485000CF93DF93182F762E342E522E602E841392
:1048600009C0261710F4722E562E252D2719062D55
:1048700040E00AC062130DC0481710F4142F382E00
:10488000432D411B062D20E0672D812F0E944322DE
:10489000B3C030E0462F50E0832D90E0811B91099A
:1048A000B901641B750B6817790734F4421B530B6D
:1048B000481759070CF450C0311630F4872D752C69
:1048C000582E812F132D382E311AE52DF0E0872C2C
:1048D000912C7F01E818F908C32DD0E028EC2E9D1B
:1048E000C0012F9D900D1124BE010E94692D6B0106
:1048F000372D412CA8ECAA2EB12C8E1A9F0A4C9C65
:10490000C0014D9C900D1124B5010E94692D272CEA
:10491000260E8436910514F0239404C08D399F4FE0
:104920000CF42A94842D810F062D222D482F632FFD
:104930000E941824322DEC16FD0624F0751410F494
:104940003F5F06C08C169D061CF0571408F43150CA
:1049500043943414A0F650C0571430F4872D752CAE
:10496000582E812F132D382E452C4718232D30E03B
:10497000A12EB12C7901EA18FB08C42DD0E048EC37
:104980004E9DC0014F9D900D1124BE010E94692DC6
:104990006B01E12F512C78EC872E912CA21AB30ACF
:1049A0005C9CC0015D9C900D1124B4010E94692D96
:1049B000212E260E8436910514F0239404C08D39DF
:1049C0009F4F0CF42A94652D670D062D262F422D3E
:1049D0008E2F0E941824E22DEC16FD0624F01315EC
:1049E00010F4EF5F06C0AC16BD061CF0311608F4DB
:1049F000E15053944514A0F6DF91CF911F910F9190
:104A0000FF90EF90DF90CF90BF90AF909F908F90EE
:104A10007F906F905F904F903F902F900895C09837
:104A200095E09A95F1F700008F718FB9779BFECFD3
:104A300080E090E0640F711D09C0FB01E80FF91FD1
:104A4000319720812FB9779BFECF0197282F219591
:104A5000241798F3C09A85E08A95F1F7000008952D
:104A600070938A0160938901509388014093870174
:104A700044E067E871E00C940F25811106C0DC98D2
:104A800040E850E060E070E005C0DC9A40E050E0B3
:104A9000BA0180E00E943025C69AC698089587B36F
:104AA000876E87BB88B3816A88BB8FE99FE00197D7
:104AB000F1F700C0000088B38F7588BB82B1846FA6
:104AC00082B91A9A1C988FE0809364008AE08093E0
:104AD000650080E18ABB8DB183658DB940E551E405
:104AE00068E175E182E00E943025C69AC69880E0B0
:104AF0000C943D253F924F925F926F927F928F92DE
:104B00009F92AF92BF92CF92DF92EF92FF920F935C
:104B10001F93CF93DF93EC01CB01BA010E94372C96
:104B200029EC30E34FE850E40E949D2C0E940B2CAE
:104B30004B015C01CE019F739C0140E050E060E0BE
:104B400070E080E090E000E30E949F2D722E132F12
:104B5000D42FC52F362E472E582E692E7828192986
:104B6000DA29CB29A3E9B1E0E8E3F0E0272D312FE2
:104B70004D2F5C2F632D742D852D962D0E2F0E94A9
:104B8000AE2D2E933897E83F8FEFF80779F748E07E
:104B90006BE871E08EE00E940F25C69AC698DF91FF
:104BA000CF911F910F91FF90EF90DF90CF90BF902A
:104BB000AF909F908F907F906F905F904F903F90BD
:104BC0000895282F287030E035952795982F9470F8
:104BD000990F922B8370982B9F7090936500089586
:104BE00094E896B9982F906497B9369A3699FECF83
:104BF000369A3699FECF24B135B13798811105C068
:104C000080919301909194010DC0813029F480919D
:104C100095019091960106C0823031F48091970100
:104C200090919801281B390BC9010895DF92EF92EA
:104C3000FF920F931F93CF93DF93109294011092E2
:104C40009301109296011092950110929801109282
:104C500097018AE0D82EC1E0D4E001E014E0EE2410
:104C6000E39494E0F92E80E00E94F0258E159F05D4
:104C700008F47C0181E00E94F0258017910708F478
:104C80008C0182E00E94F0258C179D0708F4EC014E
:104C9000DA9449F7F0929401E0929301109396010F
:104CA00000939501D0939801C0939701DF91CF9124
:104CB0001F910F91FF90EF90DF9008951F920F9238
:104CC0000FB60F9211240BB60F922F938F939F93D1
:104CD000EF93FF938BB19CB18871E091E001EF5F9E
:104CE000EF712091DF01E21739F0E093E001F0E08D
:104CF000ED51FE4F908301C082E09091DE01982B30
:104D00009093DE01FF91EF919F918F912F910F90E2
:104D10000BBE0F900FBE0F901F9018951F920F9211
:104D20000FB60F9211240BB60F928F939F93EF93B0
:104D3000FF939091E2018091E101981761F0E09179
:104D4000E101EF5FEF71E093E101F0E0ED5FFD4F16
:104D500080818CB901C05598FF91EF919F918F91FF
:104D60000F900BBE0F900FBE0F901F9018951092D2
:104D7000E2011092E1011092E0011092DF0197FF31
:104D800003C022E02BB99F779093900089B988E9FE
:104D90008AB986E08093950008959091E001809112
:104DA000DF01981781F0E091DF01EF5FEF71E09391
:104DB000DF01F0E0ED51FE4F20818091DE01109285
:104DC000DE0130E002C020E031E0C9010895909199
:104DD000E2019F5F9F712091E1019217E1F3E92FBA
:104DE000F0E0ED5FFD4F80839093E201559A0895C6
:104DF000CF93DF93EC0102C00E94E72689918111D5
:104E0000FBCFDF91CF910895CF93DF93EC0102C0E8
:104E10000E94E726FE01219684918111F9CFDF914E
:104E2000CF9108951F920F920FB60F9211240BB6D7
:104E30000F922F938F939F93EF93FF9380919B00FB
:104E400090919C008871E0919B01EF5FEF71209140
:104E50009A01E21739F0E0939B01F0E0E256FE4F31
:104E6000908301C082E090919901982B90939901D1
:104E7000FF91EF919F918F912F910F900BBE0F900B
:104E80000FBE0F901F9018951F920F920FB60F92A2
:104E900011240BB60F928F939F93EF93FF939091F2
:104EA0009D0180919C01981769F0E0919C01EF5F52
:104EB000EF71E0939C01F0E0E254FE4F808180931B
:104EC0009C0005C080919A008F7D80939A00FF918D
:104ED000EF919F918F910F900BBE0F900FBE0F908F
:104EE0001F90189510929D0110929C0110929B01A9
:104EF00010929A0197FF04C022E020939B009F77B5
:104F0000909398008093990088E980939A0086E0B6
:104F100080939D00089590919B0180919A0198172C
:104F200081F0E0919A01EF5FEF71E0939A01F0E078
:104F3000E256FE4F2081809199011092990130E054
:104F400002C020E031E0C901089590919D019F5F6A
:104F50009F7120919C019217E1F3E92FF0E0E25458
:104F6000FE4F808390939D0180919A008062809390
:104F70009A000895CF93DF93EC0102C00E94A52709
:104F800089918111FBCFDF91CF910895CF93DF936A
:104F9000EC0102C00E94A527FE0121968491811197
:104FA000F9CFDF91CF91089580E492E4AFE0B0E0D3
:104FB0008093250290932602A0932702B0932802A3
:104FC00080E896E9A8E9B0E08093290290932A024C
:104FD000A0932B02B0932C0288E0809331021092B0
:104FE0002D0210922E0210922F021092300208957C
:104FF0000F93CF93C4E00FEF2FE34C2F6CE38C2F74
:105000000E941824C45FC838B1F720E048E76CE379
:1050100084E00E944322CF910F9108950F9300E006
:105020002BE24FE764E180E00E9443220F91089554
:10503000CF92DF92EF92FF9269E381E00E941D2000
:10504000609125027091260280912702909128029A
:1050500020E4C22E22E4D22E2FE0E22EF12CA70172
:1050600096010E947D2D60E0822F0E94031A0E940B
:10507000012269E388E70E941D2060912902709156
:105080002A0280912B0290912C02A70196010E9486
:105090007D2D60E0822F0E94031AFF90EF90DF9039
:1050A000CF900C9401223F924F925F926F927F9229
:1050B0008F929F92AF92BF92CF92DF92EF92FF9228
:1050C0000F931F93CF93DF9300D000D0CDB7DEB7FF
:1050D0009A8389830E94F8276091290270912A029D
:1050E00080912B0290912C02C0902502D090260234
:1050F000E0902702F09028026C197D098E099F0923
:1051000028E730E040E050E00E947D2D29013A017F
:10511000C12CD12C760110E01C821B826CE3362E50
:105120004091250250912602609127027091280239
:1051300080912402882341F04C0D5D1D6E1D7F1D62
:105140008AE090E00E947A25E981FA8182818230AA
:1051500011F480E003C0833029F482E00E94F0253E
:105160009C838B83AB80BC80B694A79411110EC036
:1051700000E02CE241E06FE084E00E944322632DD6
:105180006A194FEF84E00E94202218C035E0B32E48
:10519000B10E00E02CE241E06FE08B2D0E94432233
:1051A000232D2A19B40176956795F32DF61B6F2FE1
:1051B0000FEF4B2D812F8C5F0E9418241F5FC40CB2
:1051C000D51CE61CF71C8B809C80183709F0A8CFF3
:1051D0000F900F900F900F90DF91CF911F910F9133
:1051E000FF90EF90DF90CF90BF90AF909F908F9007
:1051F0007F906F905F904F903F900895CF93DF9393
:1052000000D0CDB7DEB789839A830E94531A60E03D
:1052100089819A810F900F90DF91CF910C94532840
:10522000109224020E94D4270C943A1B0F931F93D0
:10523000CF93DF93CDB7DEB72A970FB6F894DEBFD2
:105240000FBECDBF6091250270912602809127028A
:105250009091280220E432E44FE050E00E947D2D3E
:105260005F934F933F932F9385E691E09F938F93A6
:105270001F928AE08F938E010F5F1F4F1F930F9332
:105280000E94E02D40E0B80184E791E30E94B11A4A
:105290000FB6F894DEBF0FBECDBF2A960FB6F894B6
:1052A000DEBF0FBECDBFDF91CF911F910F9108954B
:1052B0000F931F93CF93DF93CDB7DEB72A970FB627
:1052C000F894DEBF0FBECDBF6091290270912A0213
:1052D00080912B0290912C0220E432E44FE050E0C8
:1052E0000E947D2D5F934F933F932F9385E691E02E
:1052F0009F938F931F928AE08F938E010F5F1F4FB2
:105300001F930F930E94E02D41E0B80182E891E3E2
:105310000E94B11A0FB6F894DEBF0FBECDBF2A9619
:105320000FB6F894DEBF0FBECDBFDF91CF911F91B6
:105330000F9108950E94531A6FEF81E00E94881F19
:105340000E9416290C94582908950F9390912302D6
:10535000643021F081E091112DC02BC0911105C066
:1053600081E08093230264E10DC0913079F482E002
:105370008093230200E02AE045E061E18AE50E9493
:1053800043226FE18AE50E94871A13C0923089F4A4
:105390001092230200E02AE045E061E18AE50E94E4
:1053A00043222AE045E06CE18AE50E94432281E045
:1053B00001C080E00F9108950F931F938091230205
:1053C000813021F0823009F0D3C069C0A62FBB27FD
:1053D000A7FDB09520E432E44FE050E00E942F2D6D
:1053E0000091250210912602209127023091280277
:1053F000600F711F821F931F61302AEC72072AE928
:1054000082072BE3920748F46093250270932602EB
:10541000809327029093280208C0109225021092D0
:105420002602109227021092280280912502909164
:105430002602A0912702B091280281309546AD4CFA
:10544000BD4160F080E095E6ADECBDE180932502C2
:1054500090932602A0932702B093280280912902FC
:1054600090912A02A0912B02B0912C02409125022A
:1054700050912602609127027091280284179507A7
:10548000A607B70740F48093250290932602A093C5
:105490002702B09328021F910F910C941629A62F72
:1054A000BB27A7FDB09520E432E44FE050E00E9416
:1054B0002F2D0091290210912A0220912B02309168
:1054C0002C02600F711F821F931F61302AEC72073C
:1054D0002AE982072BE3920748F46093290270932C
:1054E0002A0280932B0290932C0208C0109229026A
:1054F00010922A0210922B0210922C028091290203
:1055000090912A02A0912B02B0912C0281309546F5
:10551000AD4CBD4160F080E095E6ADECBDE180931F
:10552000290290932A02A0932B02B0932C0280911F
:10553000250290912602A0912702B0912802409165
:10554000290250912A0260912B0270912C02481777
:1055500059076A077B0740F48093290290932A0237
:10556000A0932B02B0932C021F910F910C945829F9
:105570001F910F9108951F9384E0809338028FE864
:1055800091E390931401809313018BE991E390933D
:105590001F0180931E018AEA91E390932A01809370
:1055A000290185EB91E3909335018093340120919B
:1055B00039021BE02103C00111248D5E9E4F0E9421
:1055C000671A209139022103C00111248D5E9E4F7C
:1055D000DC011996ED91FC911A97099581E0809371
:1055E0003B021F91089580913702816080933702BA
:1055F00008950E94F11980933A02882309F44DC05E
:1056000090913B02A09139029923C1F18A0F8093B6
:10561000390240913802242F30E0992787FD909578
:10562000821793071CF04150409339028091390250
:1056300087FD109239028091390290913C028917BE
:1056400061F12BE08202C00111248D5E9E4FDC01CE
:105650001996ED91FC911A97309709F00995809170
:105660003902BBE08B02C00111248D5E9E4F0E9467
:10567000671A8091390280933C020FC02BE0A2028E
:10568000D0011124AD5EBE4F1596ED91FC91169799
:10569000309719F0682FCD01099588E00E94811993
:1056A0008823D9F080913902ABE08A02C00111242D
:1056B0008D5E9E4FDC011796ED91FC911897309707
:1056C00021F060E0099580933B028091240291E0F3
:1056D0008927809324020E943D2584E00E9481193D
:1056E000882399F080913902BBE08B02C00111241C
:1056F0008D5E9E4FDC011796ED91FC9118973097C7
:1057000021F061E0099580933B0282E00E948119BB
:10571000882399F080913902BBE08B02C0011124EB
:105720008D5E9E4FDC011796ED91FC911897309796
:1057300021F062E0099580933B0281E00E9481198B
:10574000882351F028E088E190E00FB6F894A895FE
:1057500081BD0FBE21BDFFCF80E20E948119882349
:1057600099F080913902BBE08B02C00111248D5E5B
:105770009E4FDC011796ED91FC911897309721F020
:1057800064E0099580933B028091370280FF16C048
:1057900080913902BBE08B02C00111248D5E9E4FC7
:1057A000DC011396ED91FC911497309711F060E0B5
:1057B0000995809137028E7F8093370208950E9469
:1057C00010290E9402190E94CD220E9497190E945E
:1057D0004F2580E190E80E94B7260E94BB2A0E94D4
:1057E000162678948FE391E00E94F8260E94CD2639
:1057F0008136910569F4F8940E944D1E28E088E1F5
:1058000090E00FB6F894A89581BD0FBE21BDFFCFE3
:105810000E94F92AEBCF70D088F09F5790F0B92FF3
:105820009927B751A0F0D1F0660F771F881F991FF5
:105830001AF0BA95C9F712C0B13081F077D0B1E053
:10584000089574C0672F782F8827B85F39F0B93F63
:10585000CCF3869577956795B395D9F73EF49095F7
:105860008095709561957F4F8F4F9F4F0895E89475
:1058700009C097FB3EF490958095709561957F4F98
:105880008F4F9F4F9923A9F0F92F96E9BB27939546
:10589000F695879577956795B795F111F8CFFAF456
:1058A000BB0F11F460FF1BC06F5F7F4F8F4F9F4F87
:1058B00016C0882311F096E911C0772321F09EE8E5
:1058C000872F762F05C0662371F096E8862F70E04B
:1058D00060E02AF09A95660F771F881FDAF7880F25
:1058E0009695879597F9089557FD9058440F551F41
:1058F00059F05F3F71F04795880F97FB991F61F052
:105900009F3F79F087950895121613061406551FC8
:10591000F2CF4695F1DF08C0161617061806991F34
:10592000F1CF86957105610508940895E894BB2729
:1059300066277727CB0197F908950BD078C069D0F7
:1059400028F06ED018F0952309F05AC05FC01124DA
:10595000EECFCADFA0F3959FD1F3950F50E0551F0E
:10596000629FF001729FBB27F00DB11D639FAA27B4
:10597000F00DB11DAA1F649F6627B00DA11D661F03
:10598000829F2227B00DA11D621F739FB00DA11D24
:10599000621F839FA00D611D221F749F3327A00DDE
:1059A000611D231F849F600D211D822F762F6A2F7A
:1059B00011249F5750408AF0E1F088234AF0EE0FFF
:1059C000FF1FBB1F661F771F881F91505040A9F70C
:1059D0009E3F510570F014C0AACF5F3FECF3983E94
:1059E000DCF3869577956795B795F795E7959F5F73
:1059F000C1F7FE2B880F911D9695879597F908950D
:105A000097F99F6780E870E060E008959FEF80EC71
:105A1000089500240A941616170618060906089514
:105A200000240A9412161306140605060895092E7A
:105A30000394000C11F4882352F0BB0F40F4BF2BE9
:105A400011F460FF04C06F5F7F4F8F4F9F4F089529
:105A50000E94BD2DB7FF0895821B930B0895B7FFD9
:105A60000C94C92D0E94C92D821B930B0895DB0154
:105A70008F939F930E94C92DBF91AF91A29F800DDC
:105A8000911DA39F900DB29F900D1124089587FB47
:105A9000082E062687FD819567FD61950E94D42D0D
:105AA0000EF4919507FC81950895AA1BBB1B51E14B
:105AB00007C0AA1FBB1FA617B70710F0A61BB70B7E
:105AC000881F991F5A95A9F780959095BC01CD0123
:105AD000089597FB072E16F4009407D077FD09D0A0
